:020000040800F2
:1000000028210020F9530008090B00080B0B0008F9
:100010000F0B0008130B0008170B0008000000006E
:100020000000000000000000000000001B0B0008A2
:100030001D0B0008000000001F0B0008210B00082A
:1000400011540008115400081154000811540008FC
:1000500011540008115400081154000811540008EC
:1000600011540008115400081154000811540008DC
:1000700011540008115400081154000811540008CC
:1000800011540008115400081154000811540008BC
:1000900011540008115400081154000811540008AC
:1000A000115400081154000811540008115400089C
:1000B00011540008CD4E0008B35100081154000837
:1000C000115400081154000811540008115400087C
:1000D00011540008D72C0008272F000811540008DD
:1000E000B3120008115400081154000811540008FC
:1000F000115400081154000811540008115400084C
:100100001154000811540008EF5000081154000861
:10011000115400080D310008D15000080D5100089D
:10012000115400081154000811540008115400081B
:1001300000F002F800F067F80AA090E8000C824492
:100140008344AAF10107DA4501D100F05CF8AFF26F
:10015000090EBAE80F0013F0010F18BFFB1A43F0A5
:1001600001031847A84F0100C84F01000A444FF08F
:10017000000C10F8013B13F0070408BF10F8014B06
:100180001D1108BF10F8015B641E05D010F8016B4B
:10019000641E01F8016BF9D113F0080F1EBF10F8AF
:1001A000014BAD1C0C1B09D16D1E58BF01F801CBD2
:1001B000FAD505E014F8016B01F8016B6D1EF9D555
:1001C0009142D6D37047000000230024002500266A
:1001D000103A28BF78C1FBD8520728BF30C148BFAA
:1001E0000B607047642913F05381632913F0C382B5
:1001F000732913F0C882002070471FB514F06DF901
:100200001FBD10B510BD13F0C2FA1146FFF7F5FF80
:1002100000F0A9FB13F0E0FA03B4FFF7F2FF03BC10
:1002200013F0E8FA2DE9F0474FF48372FD49FE48D8
:1002300005F04BF8FB48857D0078FC490870F948CB
:1002400090F82F00FA490870F64890F83000F94904
:100250000870F4484078F8490870F24890F8370080
:10026000F6490870EF480079F54908704FF0000032
:10027000F4490870EB4890F82400F3490870E94805
:1002800090F83600F1490870E648407AF049086075
:10029000E448807AEF490870E248C07AEE49086085
:1002A000E048007BED490870DE48407940B2EC49F7
:1002B0000870DC48807940B2EA490870D948C079B2
:1002C00040B2E9490870D748007A40B2E74908705F
:1002D000D44890F8B40040B2E5490870D14890F88D
:1002E000B50040B2E3490870CE4890F8B60040B27D
:1002F000E1490870CB4890F8B70040B2DF49087078
:10030000C84890F8B900DE490870D94890F9000053
:10031000D84991F9001001EBC011D14890F90000C3
:10032000D04A92F9002002EBC01001EB8020D549A1
:100330000860D14890F90000D04991F9001001EB14
:10034000C011C94890F90000C84A92F9002002EB98
:10035000C01001EB8020CC49086008460068C949FC
:100360000968A0EB0100C9490860AE48807C00EB39
:100370000520C7490860AB48C07CC6490870A94839
:10038000007DC54908600846006800EB80004FEA20
:100390004000C2490860A348407DC1490860A148A7
:1003A0008078C04908704FF00000BF490870BF490D
:1003B00008709C4890F82000BD490870994890F852
:1003C0002D00BC490870974890F82E00BA49087073
:1003D0009448407DB94908709248417D90F82C00BE
:1003E00001EB00208F4991F82E10A0EB01008D4900
:1003F00091F82D10A1F1030100FB01F04FF007016E
:10040000B0FBF1F0874991F82E10084400F1050087
:10041000AB490860834890F8AF8090F8B06090F8DE
:10042000B19090F8B2A04FEA0A6000EB094000EBEF
:1004300006204044A3490860964807780A2F01D255
:100440004FF00A07924807684FF000009E49087075
:100450007F4800687F49097801EB00209B490860CC
:100460007D4800687D49097801EB002098490860C3
:100470000846006895490968A0EB010095490860A5
:10048000774890F90000774991F9001001EB0020BE
:100490007C490860744890F90000744991F9001093
:1004A00001EB002078490860084600687549096832
:1004B000A0EB0100754908605A48807B86490860B6
:1004C0005848C07B854908705648007C84490860BC
:1004D0005448407C834908707F4800687F49097808
:1004E00001EB0020804908607D4800687D4909785B
:1004F00001EB00207D490860084600687A490968D8
:10050000A0EB01007A4908604648407B79490870B1
:100510004FF00000784908707849087078490870F1
:100520004FF00100774908704FF0000076490870DD
:1005300076490870764908707649087076490860EF
:1005400076490870764908707649087076490870CF
:100550007649087076490870324890F8210075494C
:100560000870304890F82300734908702D4890F8BF
:100570002600724908702B4890F82F002C4908700B
:100580004FF000006E4908706E4908702548C47F1E
:100590004FF000006C4908701CB96C486C49086049
:1005A00008E0012C03D16B486949086002E06A4801
:1005B000674908604FF00000684908706849087092
:1005C0006849086068490870164890F82000384962
:1005D0000870144890F8240064490870114890F895
:1005E0003000634908700F48C07D624908700D48AB
:1005F000007E614908700B48407E604908700948D8
:10060000807E5F4908700748C07E5E4908700548D3
:10061000007F5D4908700348407F5C4908700148CD
:10062000807FB5E0BC19002000000308510B0020BA
:1006300072000020540B00204C0000206F000020AE
:10064000530B0020B90100206D0000203102002072
:100650001C010020B601002020010020B70100206D
:10066000C1000020C5000020C4000020C8000020F8
:10067000C2000020C6000020C3000020C7000020E8
:10068000300200207C000020800000208400002038
:1006900030000020590B00203C00002040000020CA
:1006A000BC01002044000020C0010020AF01002058
:1006B00045000020C1010020C2010020C30100202C
:1006C000C801002058000020CC000020300100208C
:1006D0002401002028010020D8010020B4010020BE
:1006E000DC010020B5010020D0010020D401002051
:1006F000CC010020580B00209D0000209E0000200F
:100700009C000020E0010020E10100207800002092
:10071000CB00002073000020A40000203400002043
:1007200035000020210000202200002023000020AE
:100730002400002071000020BA0100207000002079
:10074000AC010020E8010020B0000020892201084F
:10075000480100208F23010815F80008B801002087
:10076000F1010020A80000200A0000206E000020F7
:100770004D000020E9010020EA010020EB010020EB
:10078000EC010020ED010020EE010020EF0100202F
:10079000AD490870AD4890F83100AD490870AB48DC
:1007A00090F83200AB490870A84890F83300AA4985
:1007B0000870A64890F83400A8490870A34890F83B
:1007C0003500A7490870A14890F82200A549087093
:1007D0004FF00000A4490870A4490870A4490870AB
:1007E000A4490870A4490870A449087011F088F859
:1007F00010F05FFFBDE8F08708B50121042005F087
:1008000085F94FF02000ADF800004FF010008DF892
:1008100003004FF003008DF802006946984804F089
:100820006BFE0121202005F071F94FF40060ADF856
:1008300000004FF010008DF803004FF003008DF81A
:10084000020069468F4804F057FE0121042005F09C
:100850005DF94FF01000ADF800004FF004008DF886
:1008600003004FF003008DF802006946844804F04D
:1008700043FE0121402005F049F94FF00400ADF896
:1008800000004FF048008DF803004FF003008DF892
:10089000020069467C4804F02FFE0121402005F04B
:1008A00035F94FF00800ADF800004FF048008DF822
:1008B00003004FF003008DF802006946724804F00F
:1008C0001BFE0121402005F021F94FF01000ADF88A
:1008D00000004FF048008DF803004FF003008DF842
:1008E00002006946684804F007FE0121202005F057
:1008F0000DF94FF48050ADF800004FF010008DF866
:1009000003004FF003008DF8020069465D4804F0D3
:10091000F3FD0121402005F0F9F84FF00200ADF899
:1009200000004FF048008DF803004FF003008DF8F1
:1009300002006946544804F0DFFD08BD10B54FF0D1
:100940000A0405E051A002F030FE322001F053FF0E
:100950002000A4F10104F5D156A002F026FE0A20E1
:1009600001F049FF10BD00F045F901F009FF00F06A
:10097000C9F9002148F6A04000F008FC40F6AC514F
:10098000524807F0EAF904F06BFB04F061FA04F056
:1009900033FB04F0FDFA4FF4FA7001F02CFF4FF432
:1009A000E13002F0D8F8FFF7C9FF4FF4165002F01B
:1009B00079F84FF4164002F022F84FF4165002F086
:1009C0002BF900F09FF901F09BFE00F0B1FEFFF75C
:1009D00013FF00F0EBF900F057FBFFF723FC00F0EA
:1009E0002BFC4FF001003A4908704FF000003949E4
:1009F00008603949C1F88C013849086038490860F5
:100A0000384908603849087038A002F0CEFD0F2040
:100A100001F0F1FE4FF000003749C1F8BC01374842
:100A2000007820B94FF001003549086003E04FF02D
:100A300000003349086005E0324800688047022022
:100A400001F04BFFF8E70000F0010020BC19002086
:100A50004E0000204F0000205000002051000020D8
:100A6000520000205C000020F2010020F301002071
:100A700077000020F4010020CD000020CE000020EF
:100A8000000801400014014000180140445334386C
:100A900028302C302C27706C656173652077616974
:100AA00074696E67212121272C302C30293B0D0AD7
:100AB00000000000434C53283135293B5345424C3C
:100AC00028313030293B0D0A00000000002C014085
:100AD0006D0200209081224200802242BC0121420E
:100AE00094812242AC0124421C020020434C532832
:100AF0003135293B0D0A000000002142310200205F
:100B00008081224248010020704700BFFEE700BFFD
:100B1000FEE700BFFEE700BFFEE770477047704783
:100B2000704700004FF0000108466D4A126842F419
:100B300080326B4B1A6000BF694A126802F40030C1
:100B400001F1010110B9B1F5A06FF5D1644A126845
:100B500012F4003F02D04FF0010001E04FF000001E
:100B6000012842D15F4A126842F010025D4B1A60C0
:100B70001A46126822F003021A601A46126842F0FE
:100B800002021A60564A5268554B5A601A46526819
:100B90005A601A46526842F480625A601A46526895
:100BA00022F47C125A601A46526842F4E8125A60E3
:100BB0001A46126842F080721A6000BF484A1268F2
:100BC00012F0007FFAD0464A526822F00302444BEA
:100BD0005A601A46526842F002025A6000BF404A08
:100BE000526802F00C02082AF9D1704710B5FFF7DD
:100BF00099FF10BD10B53A48006840F0010038492F
:100C0000086008464068384900EA010034494860F5
:100C100008460068354900EA010031490860084685
:100C2000006820F4802008600846406820F4FE0038
:100C300048604FF41F008860FFF7D8FF4FF0006056
:100C40002B49086010BD10B54FF000010846024660
:100C5000234B5B6803F00C0121B1042906D008295D
:100C60002CD107E0234B244C23602BE0214B224C5A
:100C7000236027E01A4B5B6803F47010184B5B6825
:100C800003F480324FF0020303EB90402AB91B4B70
:100C900000FB03F3184C23600FE0114B5B6813F467
:100CA000003F05D0154B00FB03F3134C236004E019
:100CB000104B00FB03F3104C236003E00D4B0E4C74
:100CC000236000BF00BF064B5B68C3F303130C4CEB
:100CD000E15C094B1B6823FA01F3074C236010BD4C
:100CE00000100240002002400000FFF8FFFFF6FE67
:100CF00008ED00E000127A003402002000093D00F7
:100D00003802002008B501210D2004F0FFFE01216A
:100D1000224804F0D5FC4FF40040ADF800004FF03D
:100D200010008DF803004FF003008DF802006946B3
:100D30001B4804F0E1FB4FF40041194804F09AFC11
:100D40000121212004F0E2FE0121C80304F0B8FCD7
:100D50004FF03900ADF800004FF010008DF803009F
:100D60004FF003008DF8020069460E4804F0C4FB02
:100D70000121080204F0CAFE4FF40060ADF8000043
:100D80004FF010008DF803004FF003008DF80200C3
:100D90006946054804F0B0FB08BD000000023000C1
:100DA00000080140001401400020014008B5012165
:100DB000202004F0ABFE4FF04000ADF800004FF0F3
:100DC00028008DF803004FF003008DF802006946FB
:100DD0009A4804F091FB0121202004F097FE4FF087
:100DE0008000ADF800004FF028008DF803004FF0B0
:100DF00003008DF802006946904804F07DFB012154
:100E0000080204F083FE4FF40070ADF800004FF0CC
:100E100028008DF803004FF003008DF802006946AA
:100E2000874804F069FB0121080204F06FFE4FF4CB
:100E30008060ADF800004FF028008DF803004FF0FF
:100E400003008DF8020069467D4804F055FB08BD9B
:100E500010B57C480068012816D17B48007800282E
:100E600011D17A4800780028FAD179480078002812
:100E7000F6D1784800780028F2D104F066F94FF0F6
:100E80000100724908709EE073480068012816D17D
:100E90006D4800780028F6D16C4800780028F2D11F
:100EA0006B4800780028EED16A4800780028EAD123
:100EB00004F04BF94FF001006349087083E0674884
:100EC0000068012807D06648007802281ED16548CE
:100ED000007801281AD15C480078002873D15B485B
:100EE000007800286FD15A48007800286BD1594803
:100EF0000078002867D104F028F94FF00100544928
:100F0000087059480068594908605CE05848006812
:100F1000012807D05248007803281CD15148007896
:100F2000012818D14848007800284CD1474800785B
:100F3000002848D146480078F0BB46480078D8BB26
:100F400004F003F94FF00100424908704648006878
:100F50004649086037E04748006818B946480078B5
:100F6000012830D138480078012802D1434908705F
:100F700019E036480078012804D14FF002003F49BB
:100F8000087010E032480078012804D14FF00300C7
:100F90003A49087007E02F480078012803D14FF044
:100FA00004003649087003F087FF4FF00000324913
:100FB00008702549087000E005E0244908702449BC
:100FC0000870244908702B480068502834D91E48FE
:100FD0000078012802D12A49087025E01B480078D2
:100FE000012808D14FF00200254908704FF0010098
:100FF0002449087018E016480078012808D14FF0FD
:1010000003001F4908704FF001001B4908700BE0F6
:1010100010480078012807D14FF0040018490870E3
:101020004FF001001449087003F046FF4FF0000034
:10103000054908700549087010BD00000014014002
:10104000002001401C8122422100002022000020BB
:10105000230000202400002018812242280124427D
:101060002F110020200000208C000020FC01002017
:101070002401244228000020B80100203400002070
:1010800035000020B901002000B587B001214FF4E0
:10109000017004F03BFD0121102004F037FD4FF4F6
:1010A000004004F087FC4FF00300ADF804004FF05F
:1010B00000008DF8070001A9324804F01DFA3248FB
:1010C00005F06EF84FF0000002908DF80C008DF8DE
:1010D0000D004FF4602004904FF0000005904FF099
:1010E00001008DF8180002A9274805F080F80121B9
:1010F000254805F0B2F8244805F0D4F800BF22488E
:1011000005F0D5F80028FAD11F4805F0DDF800BF3A
:101110001D4805F0DEF80028FAD107B000BD10B573
:1011200004464FF007034FF001022146164805F030
:101130000EF90121144805F0D9F800BF0221124828
:1011400005F068FA0028F9D00F4805F07BF910BDCA
:101150002DE9F04107460C464FF000052E460AE007
:101160003846FFF7DCFF05444FF0050001F043FB74
:1011700006F10100C6B2A642F2DBB5FBF4F080B284
:10118000BDE8F081001001400024014030B589B075
:1011900005460C464FF001014FF4006004F0B6FC28
:1011A0000121042004F0B2FC4FF48070ADF820005F
:1011B0004FF018008DF823004FF003008DF8220047
:1011C00008A91B4804F098F9ADF81850ADF8144080
:1011D0004FF00000ADF81A00ADF8160005A915484B
:1011E00005F0F6FE4FF07000ADF804004FF001007E
:1011F000ADF806004FF00000ADF80A004FF0020015
:10120000ADF80C0001A90B4805F025FF01210948A4
:1012100006F0A8FA0821074806F0F2FB012105486C
:1012200006F0BAFB0121034806F08FFA09B030BD81
:1012300000080140002C01401FB50121864804F040
:101240003FFA0121082004F061FC4FF48050ADF812
:101250000C004FF048008DF80F0003A97F4804F000
:101260004BF90C21012004F079FA4FF480500190E1
:101270004FF000008DF808004FF00C008DF80900C9
:101280004FF001008DF80A0001A805F006FA4FF0B2
:1012900028008DF800004FF002008DF801004FF09B
:1012A00001008DF802008DF80300684604F0FEFE90
:1012B0001FBD10B50A2001F09EFA4FF4805005F0D2
:1012C0005DFA4FF4805005F06CFA4FF4805005F051
:1012D00052FA4FF001006249087010BD10B5614824
:1012E000007801281FD05F48007802281BD05D4895
:1012F0000078032817D05B480078092813D0594894
:1013000000780C280FD05748007801280BD055489A
:101310000078152807D053480078162803D0514884
:10132000007817280AD15048007818B94FA002F069
:101330003CF97EE059A002F038F97AE0494800789B
:10134000042817D047480078052813D0454800786E
:1013500006280FD04348007807280BD04148007872
:10136000222807D03F480078232803D03D48007842
:1013700024280CD100F0D5FF3B48007818B954A0C0
:1013800002F013F955E05EA002F00FF951E0354884
:1013900000780B280CD100F0C4FF3348007818B94E
:1013A00064A002F002F944E06EA002F0FEF840E012
:1013B0002C4800781A2807D02A4800781B2803D028
:1013C000284800781C280AD12748007818B972A04C
:1013D00002F0EBF82DE07CA002F0E7F829E02148CC
:1013E00000781E280AD12048007818B983A002F09E
:1013F000DCF81EE08DA002F0D8F81AE01948007859
:1014000008280CD100F0DCFE1748007818B994A029
:1014100002F0CBF80DE09EA002F0C7F809E01248F8
:10142000007818B9A7A002F0C0F802E0B1A002F05D
:10143000BCF810BD10B54FF00100BB4908604FF07B
:10144000640001F0D8F94FF0000005490870B74971
:10145000C1F8B00110BD000000023000000C0140D6
:101460000902002018010020580B00205049432891
:101470003333382C3138322C3437293B4453333210
:10148000283333382C3236382C27B5E7BBFAB9FD70
:10149000C1F7272C302C30293B0D0A005049432836
:1014A0003333382C3138322C3437293B44533332E0
:1014B000283333382C3236382C2763757272656EB8
:1014C00074206F766572272C302C30293B0D0A0072
:1014D000504943283333382C3138322C3439293BA6
:1014E00044533332283333382C3236382C27B5E77F
:1014F000D4B4B9FDD1B9272C302C30293B0D0A00CA
:10150000504943283333382C3138322C3439293B75
:1015100044533332283333382C3236382C27766F05
:101520006C74616765206F766572272C302C3029CA
:101530003B0D0A00504943283333382C3138322CC4
:101540003439293B44533332283333382C3236383C
:101550002C27B5E7D4B4C7B7D1B9272C302C302904
:101560003B0D0A00504943283333382C3138322C94
:101570003434293B44533332283333382C32363811
:101580002C27706F776572206C6F77202020272CB6
:10159000302C30293B0D0A00504943283333382C76
:1015A0003138322C3439293B4453333228333338E1
:1015B0002C3236382C27B5E7BBFAC8B1CFE0272C40
:1015C000302C30293B0D0A00504943283333382C46
:1015D0003138322C3530293B4453333228333338B9
:1015E0002C3236382C277068617365206C61636B10
:1015F00020272C302C30293B0D0A0000504943286D
:101600003333382C3138322C3434293B4453333281
:10161000283333382C3236382C27C4A3BFE9B9CA53
:10162000D5CF272C302C30293B0D0A0050494328B8
:101630003333382C3138322C3434293B4453333251
:10164000283333382C3236382C27706F7765722068
:101650006661756C7420272C302C30293B0D0A00F4
:10166000504943283333382C3138322C3434293B19
:1016700044533332283333382C3236382C27C4A322
:10168000BFE9B9FDCEC2272C302C30293B0D0A0012
:10169000504943283333382C3138322C3434293BE9
:1016A00044533332283333382C3236382C276D6F7D
:1016B00064756C6520686F7420272C302C30293BB2
:1016C0000D0A0000504943283333382C3138322C6E
:1016D0003532293B44533332283333382C323638B1
:1016E0002C27D7DCB9CAD5CF20272C302C30293B6A
:1016F0000D0A0000504943283333382C3138322C3E
:101700003532293B44533332283333382C32363880
:101710002C27546F74616C206661696C272C302C07
:1017200030293B0D0A000000B08122420080224295
:1017300008B50121102004F0E9F94FF46040ADF83C
:1017400000004FF010008DF803004FF003008DF8FB
:1017500002006946F94803F0CFFE0121402004F061
:10176000D5F94FF06000ADF800004FF010008DF893
:1017700003004FF003008DF802006946F04803F0C3
:10178000BBFE0121802004F0C1F94FF00700ADF845
:1017900000004FF010008DF803004FF003008DF8AB
:1017A00002006946E74803F0A7FE0121080204F0A1
:1017B000ADF94FF40040ADF800004FF010008DF887
:1017C00003004FF003008DF802006946DE4803F085
:1017D00093FE08BDDD48007808280BD1DC4800786E
:1017E00020B94FF00100DB49086003E04FF0000032
:1017F000D8490860D848007808280BD1D748007825
:1018000020B94FF00100D649086003E04FF0000016
:10181000D3490860D348007808280BD1D248007813
:1018200020B94FF00100D149086003E04FF00000FB
:10183000CE490860CE48007808280BD1CD48007802
:1018400020B94FF00100CC49086003E04FF00000E0
:10185000C9490860C948007808280BD1C8480078F1
:1018600020B94FF00100C749086003E04FF00000C5
:10187000C4490860704700B5B448007807280BD108
:10188000B348007820B94FF00100B249086003E086
:101890004FF00000AF490860AF48007807280BD12F
:1018A000AE48007820B94FF00100AD49086003E070
:1018B0004FF00000AA490860AA48007807280BD119
:1018C000A948007820B94FF00100A849086003E05A
:1018D0004FF00000A5490860A548007807280BD103
:1018E000A448007820B94FF00100A349086003E044
:1018F0004FF00000A0490860A048007807280BD1ED
:101900009F48007820B94FF001009E49086003E02D
:101910004FF000009B4908609B48007840F00800A9
:1019200099490870FFF756FF00BD884800780628DF
:101930000BD18748007820B94FF000008549086036
:1019400003E04FF0010083490860834800780628CF
:101950000BD18248007820B94FF000008049086020
:1019600003E04FF001007E4908607E4800780628B9
:101970000BD17D48007820B94FF000007B4908600A
:1019800003E04FF0010079490860794800780628A3
:101990000BD17848007820B94FF0000076490860F4
:1019A00003E04FF00100744908607448007806288D
:1019B0000BD17348007820B94FF0000071490860DE
:1019C00003E04FF001006F4908606F48007800F0B5
:1019D000FB006D49087070475C48007807280BD100
:1019E0005B48007820B94FF000005A49086003E0D6
:1019F0004FF00100574908605748007807280BD17D
:101A00005648007820B94FF000005549086003E0BF
:101A10004FF00100524908605248007807280BD166
:101A20005148007820B94FF000005049086003E0A9
:101A30004FF001004D4908604D48007807280BD150
:101A40004C48007820B94FF000004B49086003E093
:101A50004FF00100484908604848007807280BD13A
:101A60004748007820B94FF000004649086003E07D
:101A70004FF00100434908604348007800F0F70048
:101A800041490870704700B53048007806280BD1EE
:101A90002F48007820B94FF001002E49086003E07C
:101AA0004FF000002B4908602B48007806280BD126
:101AB0002A48007820B94FF001002949086003E066
:101AC0004FF00000264908602648007806280BD110
:101AD0002548007820B94FF001002449086003E050
:101AE0004FF00000214908602148007806280BD1FA
:101AF0002048007820B94FF001001F49086003E03A
:101B00004FF000001C4908601C48007806280BD1E3
:101B10001B48007820B94FF001001A49086003E023
:101B20004FF00000174908601748007840F00400A3
:101B300015490870FFF74EFE00BD0000001001407F
:101B400000180140001C014000200140E901002074
:101B50004E00002094012342EA0100204F000020A3
:101B600098012342EB01002050000020B4012242E2
:101B7000EC01002051000020B8012242ED010020BC
:101B800052000020BC0122427700002000B5FA4834
:101B9000007820B9FFF777FFFFF71EFF03E0FFF79C
:101BA000C4FEFFF768FE00BDF4480078012805D1A7
:101BB000F3490860F349C1F8940108E04FF00100CF
:101BC000EF4908604FF00000EE49C1F89401EE487B
:101BD000007858B9ED48007820B94FF00100EC4981
:101BE000086003E04FF00000E9490860E948007828
:101BF00058B9E948007820B94FF00100E74908607A
:101C000003E04FF00000E5490860E548007858B966
:101C1000E448007820B94FF00100E349086003E090
:101C20004FF00000E0490860E048007858B9E0480B
:101C3000007820B94FF00100DE49086003E04FF062
:101C40000000DC490860DC48007858B9DB480078BF
:101C500020B94FF00100DA49086003E04FF00000BE
:101C6000D74908607047C5480078022803D04FF074
:101C70000100D4490860C448007858B9C3480078C6
:101C800020B94FF00000C249086003E04FF00100A6
:101C9000BF490860BF48007858B9BF48007820B9EC
:101CA0004FF00000BD49086003E04FF00100BB4960
:101CB0000860BB48007858B9BA48007820B94FF09E
:101CC0000000B949086003E04FF00100B649086020
:101CD000B648007858B9B648007820B94FF00000EF
:101CE000B449086003E04FF00100B2490860B2480F
:101CF000007858B9B148007820B94FF00000B049D9
:101D0000086003E04FF00100AD49086070479B4850
:101D10000078022807D14FF00100994908609949DD
:101D2000C1F8940108E04FF00000954908604FF0B9
:101D300001009449C1F894019348007801280BD11F
:101D40009248007820B94FF001009149086003E003
:101D50004FF000008E4908608E48007801280BD1B2
:101D60008D48007820B94FF001008C49086003E0ED
:101D70004FF00000894908608948007801280BD19C
:101D80008848007820B94FF001008749086003E0D7
:101D90004FF00000844908608448007801280BD186
:101DA0008348007820B94FF001008249086003E0C1
:101DB0004FF000007F4908607F48007801280BD170
:101DC0007E48007820B94FF001007D49086003E0AB
:101DD0004FF000007A490860704768480078012891
:101DE00003D04FF001006649086067480078012879
:101DF0000BD16648007820B94FF0000064490860B4
:101E000003E04FF001006249086062480078012851
:101E10000BD16148007820B94FF000005F4908609D
:101E200003E04FF001005D4908605D48007801283B
:101E30000BD15C48007820B94FF000005A49086087
:101E400003E04FF001005849086058480078012825
:101E50000BD15748007820B94FF000005549086071
:101E600003E04FF00100534908605348007801280F
:101E70000BD15248007820B94FF00000504908605B
:101E800003E04FF001004E49086070474E4800786B
:101E900048B94FF000004D4908604FF00100394942
:101EA000C1F8900103E04FF001004949086036484D
:101EB000007802280BD13548007820B94FF0010096
:101EC0003349086003E04FF00000314908603148B1
:101ED000007802280BD13048007820B94FF001007B
:101EE0002E49086003E04FF000002C4908602C48A0
:101EF000007802280BD12B48007820B94FF0010060
:101F00002949086003E04FF000002749086027488E
:101F1000007802280BD12648007820B94FF0010044
:101F20002449086003E04FF000002249086022487D
:101F3000007802280BD12148007820B94FF0010029
:101F40001F49086003E04FF000001D49086070471A
:101F50001D48007818B94FF001001C4908600A4874
:101F6000007802283AD10948007820B94FF00000E3
:101F70000749086032E02DE00A0200202F0200200D
:101F8000BC01214200802242E90100204E000020D5
:101F900094012342EA0100204F00002098012342CF
:101FA000EB01002050000020B4012242EC0100208F
:101FB00051000020B8012242ED0100205200002013
:101FC000BC01224294812242770000208C8122426F
:101FD000908122424FF00100F8490860F8480078EB
:101FE00002280BD1F748007820B94FF00000F649DD
:101FF000086003E04FF00100F3490860F3480078FF
:1020000002280BD1F248007820B94FF00000F149C6
:10201000086003E04FF00100EE490860EE480078E8
:1020200002280BD1ED48007820B94FF00000EC49B0
:10203000086003E04FF00100E9490860E9480078D2
:1020400002280BD1E848007820B94FF00000E7499A
:10205000086003E04FF00100E44908607047E4487D
:10206000007818B94FF00100E24908604FF0000015
:10207000E1490860E148007803280BD1E048007886
:1020800020B94FF00100CD49086003E04FF0000097
:10209000CA490860CA48007803280BD1C9480078AB
:1020A00020B94FF00100C849086003E04FF000007C
:1020B000C5490860C548007803280BD1C44800789A
:1020C00020B94FF00100C349086003E04FF0000061
:1020D000C0490860C048007803280BD1BF48007889
:1020E00020B94FF00100BE49086003E04FF0000046
:1020F000BB490860BB48007803280BD1BA48007878
:1021000020B94FF00100B949086003E04FF000002A
:10211000B649086070474FF00100B7490860B748FA
:10212000007803280BD1B648007820B94FF00000A2
:10213000A249086003E04FF00100A0490860A048F0
:10214000007803280BD19F48007820B94FF0000099
:102150009D49086003E04FF001009B4908609B48DF
:10216000007803280BD19A48007820B94FF000007E
:102170009849086003E04FF00100964908609648CE
:10218000007803280BD19548007820B94FF0000063
:102190009349086003E04FF00100914908609148BD
:1021A000007803280BD19048007820B94FF0000048
:1021B0008E49086003E04FF001008C4908607047C9
:1021C00000B58E48007804280BD18D48007820B9DE
:1021D0004FF001007949086003E04FF000007749B3
:1021E00008607748007804280BD17648007820B939
:1021F0004FF001007449086003E04FF0000072499D
:1022000008607248007804280BD17148007820B922
:102210004FF001006F49086003E04FF000006D4986
:1022200008606D48007804280BD16C48007820B90C
:102230004FF001006A49086003E04FF00000684970
:1022400008606848007804280BD16748007820B9F6
:102250004FF001006549086003E04FF0000063495A
:1022600008606348007840F0010061490870FFF79A
:10227000B1FA00BD6148007804280BD160480078AD
:1022800020B94FF000004D49086003E04FF0010015
:102290004A4908604A48007804280BD14948007828
:1022A00020B94FF000004849086003E04FF00100FA
:1022B000454908604548007804280BD14448007817
:1022C00020B94FF000004349086003E04FF00100DF
:1022D000404908604048007804280BD13F48007806
:1022E00020B94FF000003E49086003E04FF00100C4
:1022F0003B4908603B48007804280BD13A480078F5
:1023000020B94FF000003949086003E04FF00100A8
:10231000364908603648007800F0FE0034490870FD
:10232000704700B53548007805280BD1344800784F
:1023300020B94FF001002149086003E04FF0000090
:102340001E4908601E48007805280BD11D480078FA
:1023500020B94FF001001C49086003E04FF0000075
:10236000194908601948007805280BD118480078E9
:1023700020B94FF001001749086003E04FF000005A
:10238000144908601448007805280BD113480078D8
:1023900020B94FF001001249086003E04FF000003F
:1023A0000F4908600F480078052830D10E480078A2
:1023B00040BB4FF001000D49086028E09401234222
:1023C000EA0100204F00002098012342EB01002089
:1023D00050000020B4012242EC01002051000020F6
:1023E000B8012242ED01002052000020BC0122422F
:1023F000770000208C81224290812242E901002056
:102400004E000020FFE74FF000005949086059488E
:10241000007840F0020057490870FFF7DBF900BD73
:102420005548007805280BD15448007820B94FF062
:1024300000005349086003E04FF001005049086074
:102440005048007805280BD14F48007820B94FF04C
:1024500000004E49086003E04FF001004B4908605E
:102460004B48007805280BD14A48007820B94FF036
:1024700000004949086003E04FF001004649086048
:102480004648007805280BD14548007820B94FF020
:1024900000004449086003E04FF001004149086032
:1024A0004148007805280BD14048007820B94FF00A
:1024B00000002F49086003E04FF001002C4908603C
:1024C0002C48007800F0FD002A49087070472A481F
:1024D000007808280BD12948007820B94FF0000077
:1024E0002749086003E04FF00100254908602548AE
:1024F000007808280BD12448007820B94FF000005C
:102500002249086003E04FF001002049086020489C
:10251000007808280BD11F48007820B94FF0000040
:102520001D49086003E04FF001001B4908601B488B
:10253000007808280BD11A48007820B94FF0000025
:102540001849086003E04FF001001649086016487A
:10255000007808280BD11548007820B94FF000000A
:102560000349086003E04FF001000149086070472B
:10257000BC01224277000020E90100204E0000202B
:1025800094012342EA0100204F00002098012342D9
:10259000EB01002050000020B4012242EC01002099
:1025A00051000020B8012242ED010020520000201D
:1025B0005648006856498860564800684860564842
:1025C00000680860704710B54FF00100534908706B
:1025D00053A000F0EAFF4FF041005A4908704FF055
:1025E0005400487015E04FF000040CE000BF56485E
:1025F000008810F0400FFAD05248005D52498880A0
:1026000004F10100C4B2012CF0DD4FF47A7000F047
:10261000F2F84E4801780078401E4C4A10700029AC
:10262000E1D110BD10B5FFF7C3FF49A000F0BDFF19
:102630004FF04100504908604FF0540048604FF09F
:102640002B0088604FF04E00C8604FF041000861D9
:102650004FF04D0048614FF0450088614FF0530046
:10266000C8614FF0550008624FF0520048624FF0C9
:10267000500088624FF04100C8624FF05300086379
:1026800048634FF05F00886321480068C0B2C863A8
:102690001F4800684FEA102008641D484068C0B217
:1026A00048641B4840684FEA1020886418488068D6
:1026B000C0B2C864164880684FEA1020086516E06A
:1026C0004FF000040DE000BF1F48008810F0400FDD
:1026D000FAD0294850F824001B49888004F10100F1
:1026E000C4B2142CEFDD4FF47A7000F084F8234864
:1026F00001780078401E214A10700029E0D110BDF9
:1027000010B5FFF760FFFFF78DFF10BDE8F7FF1F63
:102710008C110020ECF7FF1FF0F7FF1F2C020020A8
:102720004453343828302C302C27B3F5CABCBBAF07
:10273000A3ACC7EBB5C8B4FDA3A1272C302C30291E
:102740003B0D0A002A0200200050004049020020F0
:102750004453343828302C35302C27706C65617325
:10276000652077616974696E67A3A1272C302C30CE
:10277000293B0D0A000000008C0F002048020020B9
:1027800010B56FF0040003F0E8FC60480068604991
:10279000B0FBF1F05F490870084600784FF47A7199
:1027A00000FB01F05C49088010BD0146594A1278CF
:1027B00001FB02F24FF0E0235A614FF000029A61F0
:1027C0001A46126942F001021A6100BF4FF0E0227E
:1027D000106910F0010F02D010F4803FF6D04FF0D6
:1027E000E022126922F001024FF0E0231A614FF05B
:1027F00000029A6170470146474A128801FB02F2C3
:102800004FF0E0235A614FF000029A611A461269B4
:1028100042F001021A6100BF4FF0E022106910F08F
:10282000010F02D010F4803FF6D04FF0E022126981
:1028300022F001024FF0E0231A614FF000029A618A
:1028400070470146344A128801FB02F24FF0E02340
:102850005A614FF000029A611A46126942F0010271
:102860001A6100BF4FF0E022106910F0010F02D092
:1028700010F4803FF6D04FF0E022126922F00102FE
:102880004FF0E0231A614FF000029A617047014651
:10289000204A127801FB02F24FF0E0235A614FF018
:1028A00000029A611A46126942F001021A6100BFE1
:1028B0004FF0E022106910F0010F02D010F4803FB9
:1028C000F6D04FF0E022126922F001024FF0E0232F
:1028D0001A614FF000029A6170474FF0000101E069
:1028E00001F101018142FBD370474FF000010AE082
:1028F0004FF0000201E002F101024EF660239A421D
:10290000F9D301F101018142F2D370473402002072
:1029100000127A004A0200204C02002010B5024644
:102920004FF000000EE002EB000359B2062902DD71
:10293000A1F1070359B2FE4B5B5CFE4C235400F13E
:10294000010358B20728EEDD10BD30B5024653B280
:10295000242B18D14FF0000012E0C0F12304F64DF3
:102960002D78A5EB040461B2002902DA01F12804F4
:1029700061B2F24C645CF24D2C5400F1010460B27F
:102980002328EADD19E0142B17D14FF0000012E0E4
:10299000C0F11304E84D2D78A5EB040461B20029C1
:1029A00002DA01F1280461B2E44C645CE44D2C5479
:1029B00000F1010460B21328EADD30BD30B50246F3
:1029C0000B464FF6FF7014E012F8014B84EA00004A
:1029D0004FF000010BE010F0010F04D04AF20104A7
:1029E00084EA500001E04FEA500001F1010108299A
:1029F000F1DB1C00A3F10105EBB2E5D130BD10B550
:102A000086B004464FF0010144F2050003F07EF861
:102A10004FF40070ADF814004FF003008DF816006D
:102A20004FF018008DF8170005A9C64802F064FDA4
:102A30004FF48060ADF814004FF004008DF81700DB
:102A400005A9C04802F058FD4FF025008DF80000A0
:102A50004FF001008DF801008DF802008DF80300A1
:102A6000684603F023FB01944FF00000ADF8080026
:102A7000ADF80A00ADF80C00ADF810004FF00C00F6
:102A8000ADF80E0001A9B04803F0F9F8012240F2B8
:102A90002551AD4803F0AAF90121AB4803F099F99B
:102AA00006B010BD10B586B004464FF001014FF4DA
:102AB000003003F03AF80121042003F027F84FF02A
:102AC0000400ADF814004FF003008DF816004FF02D
:102AD00018008DF8170005A99A4802F00DFD4FF077
:102AE0000800ADF814004FF004008DF8170005A998
:102AF000944802F001FD4FF026008DF800004FF0E1
:102B000002008DF801008DF802004FF001008DF8F1
:102B10000300684603F0CAFA01944FF00000ADF8D4
:102B20000800ADF80A00ADF80C00ADF810004FF049
:102B30000C00ADF80E0001A9844803F0A0F80122B2
:102B400040F22551814803F051F901217F4803F0FB
:102B500040F906B010BD10B586B004464FF0010133
:102B60004FF0100002F0D2FF0121084602F0CEFF24
:102B70000121C80402F0D9FF4FF48060ADF81400C1
:102B80004FF018008DF817004FF003008DF8160075
:102B900005A96F4802F0B0FC4FF40060ADF81400D6
:102BA0004FF003008DF816004FF010008DF817005D
:102BB00005A9674802F0A0FC4FF003008DF8010062
:102BC0008DF802004FF000008DF80300684603F016
:102BD0006DFA01944FF00000ADF80800ADF80A005E
:102BE000ADF80C00ADF810004FF00800ADF80E0085
:102BF00001A9584803F043F8012240F225515548F5
:102C000003F0F4F80121534803F0E3F84021514860
:102C100003F0F3F906B010BD10B586B004464FF0CE
:102C200001014FF0300002F071FF0121080502F0B0
:102C30007CFF4FF48050ADF814004FF018008DF871
:102C400017004FF003008DF8160005A9404802F068
:102C500053FC4FF00400ADF814008DF8170005A9DF
:102C60003D4802F049FC01944FF00000ADF8080027
:102C7000ADF80A00ADF80C00ADF810004FF00C00F4
:102C8000ADF80E0001A9354802F0F9FF4FF035000C
:102C90008DF800004FF005008DF801008DF802005E
:102CA0004FF001008DF80300684603F0FFF901A919
:102CB0002A4802F0E4FF012240F22551274803F0A0
:102CC00095F80121254803F084F84021234803F0BA
:102CD00094F906B010BD2DE9F0412148007800F1CB
:102CE00001001F49087040F22551174803F08FF981
:102CF00030B1154803F0F4F80D491A4A1278885497
:102D00000B480078012870D1094840780328FAD18F
:102D1000144800780628F6D105210548FFF74EFE35
:102D200005460348467987794FF480701CE000001F
:102D3000590200207502002018020020400F0020D8
:102D40002F110020000801400038014000440040DD
:102D500000100140004C00400014014000500040B1
:102D6000680200205002002000FB0760A842CAD180
:102D7000FE4890F80380007900EB0824FC480460CA
:102D80004FF00100FB490870FB4908704FF000004C
:102D9000FA490860FA480078132847D2DFE800F0C3
:102DA0002B34373A3D40432E310A0D101316191CAF
:102DB0001F222600F348046038E0F348046035E041
:102DC000F248046032E0F24804602FE0F148046009
:102DD0002CE0F148046029E0F048046026E0F04867
:102DE000046023E0EF48046020E069E0EE490C70E5
:102DF000EE4804601AE0ED48046017E0EC48046017
:102E000014E0EC48046011E0EB4804600EE0EB488D
:102E100004600BE0EA48046008E0EA48046005E06A
:102E2000E948046002E0E948046000BF00BFE448EC
:102E300000684FEA1020E6494870E1480068887051
:102E4000E04800684FEA1020C870DE48006808714A
:102E5000DD4800684FEA10204871DB48006888713F
:102E6000D54800684FEA1020C871D348006808723E
:102E7000D24800684FEA10204872D0480068887233
:102E8000D24800684FEA1020C872D0480068087322
:102E9000C64800684FEA10204874C4480068887427
:102EA000C34800684FEA1020C874C148006808751C
:102EB000C04800684FEA10204875BE480068887511
:102EC000AA48007801281FD1A848407806281BD1BD
:102ED000C0480078072817D10621A448FFF76EFDE7
:102EE0000546A2488679C7794FF4807000FB0760D9
:102EF000A84209D14FF001009F4908709D49087010
:102F00004FF000009D490860B248007800F10100D0
:102F1000B049087008460078072802DD4FF000002D
:102F20000870BDE8F0812DE9F04740F22551AA482C
:102F300003F06DF818B1A84802F0D2FFC6B2A74856
:102F4000A74909784654A648007804287ED1A348AA
:102F500090F80190877890F8038009EB070000EB68
:102F60000804B4F5007F02D3A4F5007403E0FF2C3D
:102F700001D9A4F5807499480079A04267D1974897
:102F8000C07810F0030F04D04FF00100954908708D
:102F900003E04FF0000093490870904845784FEAED
:102FA0000510914908608D4880784FEA2015084641
:102FB000006828440860084600688C4908608C480E
:102FC000007838B9884800688A4908604FF00100E5
:102FD00087490870844800688649096888420FDD7F
:102FE0008148006883490968401AB0F5FA6F16DD18
:102FF00081480078A0F1010040B27F4908700EE0DE
:103000007C48006878490968401AB0F5FA6F06DD17
:103010007948007800F1010040B27749087076489D
:1030200090F90000754908706F48006871490860A0
:1030300071480078012805D16B48006800F5805080
:10304000694908606C4890F9000001E02DE025E036
:10305000401C05D164480068A0F5805062490860B2
:103060005E48807800F00F054FEA851064490860DB
:103070005A48C0784FEAA00508460068284408600E
:1030800059480068096801EB80205E4908604FF0EC
:1030900000005D490870524908700CE05048007803
:1030A00000F101004E49087005E04D48007800F13C
:1030B00001004B4908704A480078052803DD4FF0AD
:1030C000050047490870BDE8F08730B502460B4659
:1030D0004FF6FF7014E012F8014B84EA00004FF045
:1030E00000010BE010F0010F04D04AF2010484EA61
:1030F000500001E04FEA500001F101010829F1DB25
:103100001C00A3F10105EBB2E5D130BD2DE9F0477C
:1031100040F225513D4802F07AFF20B13B4802F0D1
:10312000DFFE00F0FF093A483A49097800F80190BB
:1031300038490978405C3C2874D12420FFF705FC0D
:103140004FF0000409E03448005D34490855324826
:1031500000783349087004F10104242CF3D32121B1
:103160002E48FFF7B2FF05462C485CE059020020CC
:10317000A8000020CE00002062020020640200208F
:1031800061020020D0000020D40000207002002046
:10319000DC000020E0000020E4000020E800002027
:1031A000EC000020D800002018010020F4000020CE
:1031B000F8000020FC000020000100200401002095
:1031C000080100200C010020100100201401002043
:1031D0008C1000205002002000440040030000201A
:1031E000020000200100002088000020B400002020
:1031F00009000020BC00002074000020C000002056
:10320000900000208C000020690200200050004047
:10321000400F0020180200202F11002098110020DC
:103220001B02002044E190F8216090F822704FF4D6
:10323000807000FB0760A8427ED14FF00100FA4980
:103240000870FA480078F12877D1F948007800280A
:1032500074D14FF48372F749F74802F036F8F54815
:1032600090F83000F5490870F0488178407801EB1B
:103270000020F349087008460078012802D14FF079
:10328000FF000870E948017AC07901EB0020ED49A0
:103290000870E648817A407A01EB0020EA4908602C
:1032A000E248017BC07A01EB0028E048817B407B4B
:1032B00001EB0020E5490870DC48017CC07B01EB94
:1032C0000020E3490870D948817C407C01EB002054
:1032D000E0490870D548017DC07C01EB0020DE4943
:1032E0000870D248817D407D01EB0020DB490870E9
:1032F000CE48017EC07D01EB0020D9490870CB4843
:10330000817E407E01EB0020D6490870C748017FCE
:10331000C07E01EB0020D4490870CA48007800281C
:103320006FD0C948006800286BD0C5480078C149F3
:103330004873CE48006802E07AE067E061E04FEA57
:1033400010208875C94800688874C9480078C87416
:10335000BC4800780870BC4800680875C54800780B
:1033600081F83000BA4800788870BA480078C8758B
:10337000B94800780876B94800784876B8480078A7
:103380008876B8480078C876B748007881F8260073
:10339000B8F1650F06D14FF00100B7490870A54993
:1033A000087107E04FF00000B3490870A14981F8A7
:1033B00037800871A5480078A049097888421AD05A
:1033C000AE480078642804D14FF00000AB49087083
:1033D00003E04FF06400A94908709C48007800F0B1
:1033E00001009A49087008460078924981F8300037
:1033F000A248007848704FF483728E498E4801F0DD
:1034000078FF4FF005009E49087015E08748007866
:10341000F22804D14FF00800994908700CE0834865
:103420000078F32808D14FF009009549087003E0AF
:103430004FF000007C4908701420FFF786FA4FF027
:10344000000405E08F48005D7849085504F1010447
:10345000142CF7D311217548FFF737FE0546734842
:10346000467C877C4FF4807000FB0760A84272D1D5
:103470006E480078012804D14FF007008049087099
:1034800084E06A480078112813D10DF0EBF94FF071
:1034900007007B4908707C48007800F101007A49F8
:1034A000087008460078012870DD4FF000000870B1
:1034B0006CE05E480078102804D14FF00600704997
:1034C000087063E059480078032820D14FF00700C6
:1034D0006B4908704FF001006C4908706A48007829
:1034E00080B94FF001006A4908706A4800680528F1
:1034F00001DD0DF096F967480068022846DA0DF004
:10350000B1F943E04FF00000614908703EE04748E0
:103510000078022825D14FF00700594908704FF074
:1035200001005A49087058480078A8B94FF00100C6
:10353000574908705748006840F2E331884201DA81
:103540000DF04CF95348006840F2E63188421DDD29
:103550000DF088F91AE015E04FF000004C490870B2
:1035600014E03248007888B94FF001004A490870E9
:103570004FF00700424908704348007830B90DF019
:1035800071F903E04FF000002749087043480078C4
:1035900000F101004149087008460078272802DD43
:1035A0004FF000000870BDE8F08770B504464FF09A
:1035B000000515E0605D90B1615D394802F08CFC5A
:1035C00000BF8021364802F0FDFC0028F9D005F14B
:1035D0000100C5B24FF06400FFF7E7F800E070BDEE
:1035E000E8E7704730B502460B464FF6FF7014E02F
:1035F00012F8014B84EA00004FF000010BE010F0DC
:10360000010F04D04AF2010484EA500001E04FEABD
:10361000500001F101010829F1DB1C00A3F10105B3
:10362000EBB2E5D130BD0000CE00002098110020A3
:10363000AE010020BC19002000000308540B00203C
:10364000580B0020510B00203C0000204D000020B2
:1036500044000020E9010020EA010020EB010020E5
:10366000EC010020ED01002070000020300000205F
:10367000590B0020550B0020530B00204C0000205C
:10368000F00000202F110020B001002020000020B9
:10369000B101002094000020B20100201802002097
:1036A000004C00402DE9F04105460E464FF0010068
:1036B000F94908704FF00300487008468570C670DD
:1036C0004FF0000008714FF0010048714FF0060103
:1036D000F148FFF787FF0746EF498F714FEA172040
:1036E000C871EE480078012815D14FF0000410E0B1
:1036F00000BFEB48008810F0400FFAD0E648005DAC
:10370000E84908804FF03200FFF74FF804F101005C
:10371000C4B2072CECDD4FF00000E34908704FF015
:103720001400FFF768F8E1480068BDE8F0812DE972
:10373000F04306460C46174698464FF00100D6491E
:1037400008704FF00600487008468670C470077114
:1037500080F805804FF00601FFF744FF8146CE490F
:1037600081F806904FEA1920C871032E03D1092C65
:1037700013D00A2C11D04FF000050CE000BFC84850
:10378000008810F0400FFAD0C348405DC54908805A
:1037900005F10100C5B2072DF0DD4FF00000C4496E
:1037A0000870C1490870BDE8F083F0B505460E46C3
:1037B0004FF00100B84908704FF003004870084608
:1037C0008570C6704FF0000008714FF0010048711D
:1037D0004FF00601B048FFF705FF0746AE498F716D
:1037E0004FEA1720C8714FF000040CE000BFAC484E
:1037F000008810F0400FFAD0A748005DA949088062
:1038000004F10100C4B2072CF0DD4FF00000A9491B
:103810000870A7490870A4490870F0BD2DE9F04769
:10382000A3480078012830D1A348007809282DD179
:103830004FF0F300A14908704FF03C0081F82300DD
:103840004FF021019D48FFF7CDFE04469B4981F8CA
:1038500021404FEA142081F822009948008810F096
:10386000400F12D0084697490978405C94498880F7
:103870009448007800F101009249087008460078E9
:10388000232802DD4FF00000087003E18A48007829
:1038900008287CD18B480078002879D14FF0F200BD
:1038A00089490870894908684FEAE07100EB1161A5
:1038B0004FEA1121844A5175844908684FEAE07142
:1038C00000EB11614FEA2121A0EB012191757F49A5
:1038D00008684FEAE07100EB11614FEA1121D175E0
:1038E0007A4908684FEAE07100EB11614FEA212143
:1038F000A0EB01211176764800684FEA10201146AE
:103900004870744800684FEA1020C8707248006818
:103910004FEA1020C871704800684FEA10206F49C4
:1039200048716F4800684FEA10201146C8726D4810
:1039300000684FEA1020C8736B4800684FEA1020F7
:1039400048746A4800684FEA1020C87468480068E4
:103950004FEA10204871674800684FEA102048720B
:103960006548006865490968884212D8624800685D
:1039700000EB800062490968C1EB401061490968A9
:10398000B0FBF1F9484610F099FC074613E0BDE0A2
:1039900068E0594800685A490968401A00EB8000FD
:1039A000400158490968B0FBF1F000F12809484688
:1039B00010F084FC07460021384610F093FC04D335
:1039C0005149384610F095FD01D24FF000073846B6
:1039D00010F040FC81464FEAE07009EB10604FEABE
:1039E0002020A9EB002038498873384610F032FCBB
:1039F00081464FEAE07009EB10604FEA102032492F
:103A0000487333480068887032480068087132484B
:103A10000068087230480068304988713048006892
:103A2000294908732F48006808742F480068887473
:103A30002E48006808752E48006888712D48006877
:103A400088724FF021012048FFF7CCFD04461E4943
:103A500081F821404FEA142081F822004FF03C0009
:103A600081F823001648008810F0400F12D0164845
:103A700014490978405C124988801248007800F1A6
:103A800001001049087008460078232802DD4FF035
:103A9000000008708BE30000510200206D0200203E
:103AA000003801400438014050020020A8000020E6
:103AB00062020020CD000020F00000208C100020C9
:103AC000005000406B0200203401002088000020DC
:103AD000D0000020D40000207002002064100020DC
:103AE000DC000020E0000020E4000020E8000020CE
:103AF000EC000020D80000202C0100202401002030
:103B0000300100202801002000007A44FE4800789F
:103B100006287CD14FF48372FC49FD4801F0D5FBA7
:103B2000FA4890F8A80040B2FA490870F74890F8AF
:103B3000A90040B2F8490870F44890F8AA0040B2D1
:103B4000F6490870F14890F8AB0040B2F4490870AB
:103B5000EE4890F8AC0040B2F2490870EB4890F89B
:103B6000AD0040B2F04908704FF01000EF49087006
:103B7000E84991F900004FEAE07100EB11614FEA6A
:103B80001121EA4A5170E34991F900004FEAE071CE
:103B900000EB11614FEA2121A0EB01219170DE4978
:103BA00091F900004FEAE07100EB11614FEA112139
:103BB000D170D94991F900004FEAE07100EB116131
:103BC0004FEA2121A0EB01211171D44991F90000A4
:103BD0004FEAE07100EB11614FEA11215171CF49B9
:103BE00091F900004FEAE07100EB11614FEA2121E9
:103BF000A0EB01219171CA4991F900004FEAE071EF
:103C000000EB11614FEA1121D171C54900E056E086
:103C100091F900004FEAE07100EB11614FEA2121B8
:103C2000A0EB01211172BF4991F900004FEAE07148
:103C300000EB11614FEA11215172BA4991F900006C
:103C40004FEAE07100EB11614FEA2121A0EB012165
:103C50009172B54991F900004FEAE07100EB1161F2
:103C60004FEA1121D172B04991F900004FEAE07199
:103C700000EB11614FEA2121A0EB012111734FF0FC
:103C800011011046FFF7AEFC0446A8494C744FEAF8
:103C9000142088744FF03C00C8744FF000060BE00D
:103CA00000BFA348008810F0400FFAD09F48805D05
:103CB0009F49888006F10106142EF1D377E29248DD
:103CC000007805287ED14FF483729049904801F026
:103CD000FCFA8E4890F81680407B964908708B4815
:103CE000807C00EB0820944908608848C07C934998
:103CF000087086480078924908708448007D914990
:103D00000860824890F830008F4908707F488078BA
:103D10008E4908707D48C07D8D4908707B48007EC3
:103D20008C4908707948407E8B4908707748807EBE
:103D30008A4908707548C07E89490870734890F8B0
:103D4000260088490870714890F837008649087045
:103D50006E4800798549087008460078012802D12C
:103D60004FF0650502E08048007845B24FF0F10061
:103D70007F4908704FF03C0081F823004FF021018B
:103D80007B48FFF72FFC0446794981F821404FEA30
:103D9000142081F82200674908784FEAE07100EBAF
:103DA00011614FEA2121724A5170624908784FEA45
:103DB000E07100EB11614FEA2121A0EB012191702C
:103DC0005D4800E036E100684FEA10201146C870F7
:103DD000594800680871594908784FEAE07100EBCA
:103DE00011614FEA21215171544908784FEAE0717D
:103DF00000EB11614FEA2121A0EB012191715049A3
:103E000008784FEAE07100EB11614FEA2121D1718E
:103E10004B4908784FEAE07100EB11614FEA21212C
:103E2000A0EB01211172474800684FEA10201146AB
:103E3000487244480068887228464FEAE57105EBED
:103E400011614FEA1121D1724FEAE57105EB116161
:103E50004FEA2121A5EB012111733B4908784FEA74
:103E6000E07100EB11614FEA212151733649087866
:103E70004FEAE07100EB11614FEA2121A0EB012133
:103E80009173324908784FEAE07100EB11614FEA13
:103E90002121D1732D4908784FEAE07100EB1161BF
:103EA0004FEA2121A0EB01211174294908784FEA3A
:103EB000E07100EB11614FEA212151742449087827
:103EC0004FEAE07100EB11614FEA2121A0EB0121E3
:103ED0009174204908784FEAE07100EB11614FEAD4
:103EE0002121D1741B4908784FEAE07100EB116180
:103EF0004FEA2121A0EB01211175174908784FEAFB
:103F0000E07100EB116135E0F0000020BC190020E9
:103F100000000308270200202502002024020020C0
:103F2000260200202802002029020020771100200C
:103F300000500040580B002030000020590B00209A
:103F4000510B00203C000020540B002044000020B6
:103F5000E9010020EA010020EB010020EC01002033
:103F6000ED010020700000206F000020530B0020A6
:103F7000680F00204FEA21215175F84908784FEA6F
:103F8000E07100EB11614FEA2121A0EB0121917555
:103F9000F34908784FEAE07100EB11614FEA212103
:103FA000D175EF4908784FEAE07100EB11614FEAF3
:103FB0002121A0EB01211176EA4908784FEAE0714E
:103FC00000EB11614FEA21215176E64908784FEA6A
:103FD000E07100EB11614FEA2121A0EB0121917604
:103FE000E14908784FEAE07100EB11614FEA2121C5
:103FF000D176DD4908784FEAE07100EB11614FEAB4
:104000002121A0EB012111774FF0000011464877E4
:10401000887706460BE000BFD448008810F0400FB8
:10402000FAD0D348805DD149888006F10106232E5D
:10403000F1D9BCE0CF4800780728FAD1CE48007803
:1040400000287DD1CD480078022802D1CC490870E3
:104050001BE0CA480078032802D1C949087014E05F
:10406000C6480078012802D1C54908700DE0C34850
:10407000007820B94FF00000C149087005E0BF4842
:104080000078112801D1BE490870BE480078BC49AB
:104090000870BD480068002803DA4FF00000BA49F4
:1040A0000860B94908684FEAE07100EB11614FEA16
:1040B0001121B34A5170B44908684FEAE07100EB2E
:1040C00011614FEA2121A0EB01219170AF480068F6
:1040D0004FEA10201146C870AC4800680871AC481F
:1040E00000684FEA10204871A948006888714FF0B5
:1040F0000000C871A7480068A0F16400A6490968DB
:1041000088420BD8A4480168A44800686430814202
:1041100004D84FF001001146087203E04FF0000090
:10412000974908729848006800EB80004FEA4010F9
:104130004FF47A7190FBF1F000F12800984900E00B
:104140001DE00860084600684FEA10208C4948725C
:104150009348006888724FF00000C8729148007858
:1041600008734FF03C00C8744FF011018448FFF70A
:1041700039FA044682494C744FEA142088747B480B
:10418000008810F0400F12D07D487B490978405CD0
:10419000764988807848007800F1010076490870F7
:1041A00008460078132802DD4FF0000008707E48B2
:1041B000006800F101007C49086008460068B0F51D
:1041C000FA6F0CD94FF0000008604FF001007749FA
:1041D00008707748007800F101007549087075484B
:1041E0000078002878D1714800780128FAD1724807
:1041F000007800F1010070490870084600782A280C
:1042000002DD4FF0000008706C486B490978405C93
:104210006B49087008460078132870D2DFE800F078
:10422000EF828B94D4DDE670790A15202B363F4857
:10423000515D66004FF00900624908704FF00401BB
:104240004FF02100FFF7B1FADEE04FF00A005D49C0
:1042500008704FF006014FF02100FFF7A6FAD3E0F7
:104260004FF00B00574908704FF003014FF0210049
:10427000FFF79BFAC8E04FF00C00524908704FF06E
:1042800028014FF00300FFF790FABDE0082121203C
:10429000FFF78BFA4FF00D004A490870B4E0072190
:1042A0002120FFF782FA4FF00E0046490870ABE07C
:1042B00002210C20FFF779FA4FF00F0041490870F6
:1042C000A2E04FF010003F4908704FF005014FF099
:1042D0002100FFF76AFA97E097E002212120FFF71B
:1042E00064FA4FF01100374908708DE00021062074
:1042F000FFF75BFA4FF012003249087084E07EE06D
:1043000007210620FFF751FA4FF007002D490870EA
:104310007AE008210620FFF748FA4FF00800294903
:10432000087071E001210620FFF73FFA4FF001000D
:104330002449087068E002210620FFF736FA4FF0A2
:104340000200204908705FE003210620FFF72DFAE4
:104350004FF003001B49087056E00000EB010020FD
:10436000EC010020ED010020700000200050004012
:10437000680F0020F00000206B020020400F00209A
:10438000781000202F11002094000020D000002081
:1043900070020020300100202C01002024010020A8
:1043A00020020020B00100206402002062020020F0
:1043B0006C020020680B00200A0000203E46010825
:1043C000610200207402002004210620FFF7EDF9AD
:1043D0004FF004003149087016E005210620FFF770
:1043E000E4F94FF005002D4908700DE0062108465C
:1043F000FFF7DBF94FF006002849087004E0284871
:1044000000782649087000BF00BFBDE8F0872DE99D
:10441000F04706460C46174698464FF001002149E2
:1044200008704FF00600487008468670C470077127
:1044300080F805804FF00601FFF7D4F8814619494E
:1044400081F806904FEA1920C871032E03D1092C78
:1044500013D00A2C11D04FF000050CE000BF124819
:10446000008810F0400FFAD00E48405D0F490880D8
:1044700005F10100C5B2072DF0DD0220FEF735FA87
:10448000BDE8F08710B50021094801F0A2FC10BD7D
:1044900010B50121064801F09CFC10BD74020020FB
:1044A0006102002051020020003801400438014020
:1044B0000050004002464FF000010DE0F54850F872
:1044C0002100904205D1C1EBC100F34B03EB80000A
:1044D000704701F10100C1B24529EFDB0020F7E789
:1044E0002DE9F047EDA0FFF760F80A20FEF783F909
:1044F0004FF00008C1464FF47A70B9FBF0F44FF06A
:104500006400B9FBF0F5B9FBF0F100FB11904FF03E
:104510000A01B0FBF1F60846B9FBF0F100FB119778
:104520004FF01400FEF7E1F94046DF490870DF491B
:104530000870DF490870DF490870DF490870DF49FB
:10454000087090E1FCF784FCDD48007801280CD16C
:10455000DCA0FFF72AF81420FEF74DF9E6A0FFF7DC
:1045600024F81420FEF747F90BE0EBA0FFF71DF845
:104570001420FEF740F9F5A0FFF717F81420FEF716
:104580003AF9B8F1000F09D0B8F1010F27D0B8F10E
:10459000020F45D0B8F1030F20D162E02246F3A10B
:1045A000F8480EF00FFFF748FEF7FFFF2A46F6A186
:1045B000F4480EF007FFF348FEF7F7FF3246F8A184
:1045C000F0480EF0FFFEEF48FEF7EFFF3A46FAA183
:1045D000EC480EF0F7FEEB48FEF7E7FF62E02246FC
:1045E000FBA1E8480EF0EEFEE648FEF7DEFF2A46A5
:1045F000FDA1E4480EF0E6FEE248FEF7D6FF3246A3
:10460000E7A1E0480EF0DEFEDE48FEF7CEFF3A46B8
:10461000E9A1DC480EF0D6FEDA48FEF7C6FF41E01D
:104620002246EBA1D7480EF0CDFED648FEF7BDFFDF
:104630002A46D5A1D3480EF0C5FED248FEF7B5FFF5
:104640003246EFA1CF480EF0BDFECE48FEF7ADFFDB
:104650003A46D9A1CB480EF0B5FECA48FEF7A5FFF1
:1046600020E02246DAA1C7480EF0ACFEC548FEF7AE
:104670009CFF2A46C4A1C3480EF0A4FEC148FEF721
:1046800094FF3246C6A1BF480EF09CFEBD48FEF71F
:104690008CFF3A46E0A1BB480EF094FEB948FEF705
:1046A00084FF00BF00BF8048007803281FD14FF06F
:1046B00000007D4908707D490870B8F1000F09D0ED
:1046C000B8F1010F09D0B8F1020F09D0B8F1030F0A
:1046D0000CD108E004F1010408E005F1010505E052
:1046E00006F1010602E007F1010700BF00BF6E48B6
:1046F000007804281FD14FF000006B4908706B4907
:104700000870B8F1000F09D0B8F1010F09D0B8F165
:10471000020F09D0B8F1030F0CD108E0A4F1010495
:1047200008E0A5F1010505E0A6F1010602E0A7F108
:10473000010700BF00BF092C01DD4FF00004092D67
:1047400001DD4FF00005092E01DD4FF00006092FB5
:1047500001DD4FF00007002C01DA4FF00904002DB5
:1047600001DA4FF00905002E01DA4FF00906002F9B
:1047700001DA4FF009074D480078022849D14FF07F
:1047800000004949087049490870032C28D1012DBF
:1047900026D1052E24D1042F22D11E20FFF78AFE18
:1047A000A3490860A3A0FEF700FF0F20FEF723F83F
:1047B000A3A0FEF7FAFE1420FEF71DF800BFA648DE
:1047C00000680028FBD1A54800680028F7D1A4485C
:1047D00000680028F3D1A34800680028EFD143E027
:1047E00037480078012807D19FA0FEF7DEFE4FF47E
:1047F000FA70FEF700F806E0A5A0FEF7D6FE4FF42B
:10480000FA70FDF7F8FF25A0FEF7CFFE0A20FDF7AE
:10481000F2FF2548007802280ED14FF0000022490F
:1048200008702249087008F1010000F0FF08B8F193
:10483000030F01DD4FF000081C480078012812D159
:104840004FF00000184908701849087013A0FEF7CF
:10485000ACFE0820FDF7CFFF954896490860084652
:104860000068804700E06DE600BFBDE8F08710B546
:104870000BF0F8FFFFF706FE4FF000008E490860CE
:1048800005486B49086005A0FEF78FFE0F20FDF775
:10489000B2FF7DE27C02002094030020434C5328A9
:1048A0003135293B0D0A000034000020350000207E
:1048B00021000020220000202300002024000020EE
:1048C000580B00204453343828302C3237302C27F2
:1048D0004241434B272C302C30293B445334382859
:1048E0003334302C3237302C27454E544552272C48
:1048F000302C30293B0D0A004453343828313136EE
:104900002C302C2750415353574F5244272C302CD6
:1049100030293B0D0A0000004453343828302C3233
:1049200037302C27B7B5BBD8272C302C30293B4447
:10493000533438283338322C3237302C27C8B7B6A6
:10494000A8272C302C30293B0D0A00004453343862
:10495000283131362C302C27C7EBCAE4C8EBC3DC36
:10496000C2EB272C302C30293B0D0A00445334383D
:10497000283138302C3133372C272564272C312926
:104980003B0D0A00AF100020445334382832313038
:104990002C3133372C272564272C30293B0D0A0076
:1049A00044533438283234302C3133372C272564A3
:1049B000272C30293B0D0A00445334382832373035
:1049C0002C3133372C272564272C30293B0D0A0046
:1049D00044533438283138302C3133372C27256470
:1049E000272C30293B0D0A0044533438283231300B
:1049F0002C3133372C272564272C31293B0D0A0015
:104A000044533438283234302C3133372C27256442
:104A1000272C31293B0D0A004453343828323730D3
:104A20002C3133372C272564272C31293B0D0A00E4
:104A300064000020434C53283135293B000000001E
:104A40004453343828302C302C274F4B21272C301E
:104A50002C30293B0D0A0000280124422401244265
:104A6000188122421C812242445334382831313685
:104A70002C3133372C2750415353574F5244204544
:104A800052524F52272C302C30293B0D0A00000087
:104A900044533438283131362C3133372C27C3DC9A
:104AA000C2EBB4EDCEF3272C302C30293B0D0A009D
:104AB0006F4800084801002060000020FCF7C8F99A
:104AC000B5480068B5A18269B9480EF07BFCB848CA
:104AD000FEF76BFD1C20FDF78EFEB648007801281E
:104AE0001AD1AFF22020FEF760FD1220FDF783FE01
:104AF000A9480068B0A18268AD480EF063FCAC48DC
:104B0000FEF753FD1220FDF776FEB0A0FEF74DFD37
:104B10001220FDF770FE19E0AFF20420FEF745FD0C
:104B20001C20FDF768FE9C480068A3A14268A048CD
:104B30000EF048FC9E48FEF738FD1C20FDF75BFE9A
:104B4000A7A0FEF732FD1C20FDF755FEA94800780E
:104B500003283BD14FF00000A6490870A649087011
:104B6000AFF23010FEF721FD1C20FDF744FE8A480D
:104B70000068016988480068C068401E814206D00C
:104B80008548006800F11C00834908601CE08249E8
:104B900009680A6880490968C968491E501AFFF700
:104BA00089FC7D49086008460068006893490860F0
:104BB0000846006840F2DC51884205DD40F2825030
:104BC000FFF778FC74490860FCF742F989480078DF
:104BD000042834D14FF000008649087086490870D7
:104BE000AFF2B010FEF7E1FC1C20FDF704FE6A48AE
:104BF0000068006930B168480068A0F11C0066498F
:104C000008601CE0644909680A6863490968C96862
:104C1000491E5018FFF74EFC5F49086008460068BF
:104C20000068764908600846006840F2DC51884216
:104C300005DD40F28450FFF73DFC574908606D48A0
:104C40000078022834D14FF000006A4908706A49A0
:104C50000870AFF22020FEF7A8FC1220FDF7CBFD74
:104C60004D480068006800EB80004FEA400063494F
:104C7000086008460068FFF71DFC614908600846A7
:104C8000006820B1084600684349086004E04248D3
:104C9000006841695B4888473F48006800681E28F3
:104CA00006D1AFF2C37058490860084600688047D3
:104CB000FCF7CEF84F480078012829D14FF00000CA
:104CC0004C4908704C490870AFF29820FEF76DFC13
:104CD0001220FDF790FD3048006800684FF00A018F
:104CE000B0FBF1F04549086008460068012802DA87
:104CF0004FF00100086041480068FFF7DBFB4049C6
:104D000008600846006818B1084600682249086033
:104D10003948007801283BD14FF000003549087030
:104D2000354908704FF00100384908703848364955
:104D300008603848007800F0BF0036490870AFF2CC
:104D40000C30FEF732FC1220FDF755FD19480078B3
:104D500030B931A0FEF729FC1420FDF74CFD05E029
:104D60003648FEF722FC1420FDF745FD00BF34480D
:104D700000680028FBD1334800680028F7D132488A
:104D800000680028F3D1314800680028EFD100E026
:104D900094E600BF10BD0000640000205049432885
:104DA0003332372C302C2564293B0D0A00000000DB
:104DB000AF100020580B00204453343828302C30DA
:104DC0002C272573272C30293B0D0A0050494328F6
:104DD000302C38302C313536293B0D0A00000000CC
:104DE00050494328302C38302C313537293B0D0AB7
:104DF000000000003400002035000020600000208A
:104E00006800002094030020480100207800002062
:104E10008F230108770000204453333228302C3090
:104E20002C27CBC9CAD6B7B5BBD8D6F7BDE7C3E6E2
:104E3000A3A1272C302C30293B0D0A006C46010819
:104E40002801244224012442188122421C8122424A
:104E50001FB50121022000F068FE41F28830ADF854
:104E6000080041F61F40ADF804004FF00000ADF817
:104E70000A00ADF8060001A9F14802F0A9F80122E4
:104E80004121EF4802F07DFC4FF01D008DF800003D
:104E90004FF005008DF801004FF003008DF802007F
:104EA0004FF001008DF80300684601F0FFF8012182
:104EB000E34802F04AFC1FBD10B54FF00000E14985
:104EC00008600146E04802F040FC10BD10B5012129
:104ED000DB4802F079FF18B10121D94802F088FFC0
:104EE000DA480078B0B9DA480078012806D1D94804
:104EF00000686FEA0000D849C1F8BC01D4480078C6
:104F0000022810D1D54800686FEA0000D449C1F8E2
:104F1000940108E00EF0A1F8D24800686FEA0000A2
:104F2000CF49C1F88C0110BD1FB50121082000F048
:104F3000FCFD4FF4AF70ADF8080041F61F40ADF82E
:104F400004004FF00000ADF80A00ADF8060001A91A
:104F5000C54802F03DF801224121C34802F011FC8E
:104F60004FF032008DF800004FF003008DF8010083
:104F70004FF004008DF802004FF001008DF803009F
:104F8000684601F093F80021B74802F0DEFB1FBD30
:104F90001FB50121202000F0C8FD4FF0C800ADF87A
:104FA000080041F61F40ADF804004FF00000ADF8D6
:104FB0000A00ADF8060001A9AC4802F009F8012288
:104FC0004121AA4802F0DDFB4FF037008DF80000C8
:104FD0004FF003008DF801004FF004008DF802003F
:104FE0004FF001008DF80300684601F05FF80121E1
:104FF0009E4802F0AAFB1FBD1FB50121102000F042
:1050000094FD4FF0C800ADF8080041F61F40ADF820
:1050100004004FF00000ADF80A00ADF8060001A949
:10502000934801F0D5FF01224121914802F0A9FBEC
:105030004FF036008DF800004FF003008DF80100AE
:105040004FF004008DF802004FF001008DF80300CE
:10505000684601F02BF80121854802F076FB1FBD60
:105060001FB50121082000F060FD01217E4802F0FB
:10507000BFFE40F28B10ADF8080041F61F40ADF8BE
:1050800004004FF00000ADF80A00ADF8060001A9D9
:10509000754801F09DFF01224121734802F071FB28
:1050A0004FF032008DF800004FF003008DF8010042
:1050B0004FF004008DF802004FF001008DF803005E
:1050C000684600F0F3FF0121674802F03EFB1FBD78
:1050D00010B50121664802F077FE38B1012164481D
:1050E00002F086FE4FF001006249087010BD10B555
:1050F00001215D4802F068FE38B101215A4802F0F2
:1051000077FE4FF001005C49087010BD10B5012119
:10511000564802F059FE60B10121544802F068FE81
:105120004FF00100554908704FF000014F4802F060
:105130000CFB10BD10B54FF000005149086001464E
:105140004FF0804002F001FB10BD1FB5012104208B
:1051500000F0EBFC4FF0FA00ADF8080041F61F40FC
:10516000ADF804004FF00000ADF80A00ADF80600FD
:1051700001A9354801F02CFF01224121324802F0FB
:1051800000FB4FF01E008DF800004FF006008DF878
:1051900001004FF005008DF802004FF001008DF87E
:1051A0000300684600F082FF0121274802F0CDFA93
:1051B0001FBD10B50121244802F006FE48B10121AF
:1051C000214802F015FE1F48006800F101001D494A
:1051D000086010BD10B54FF000001A490860014684
:1051E000194802F0B2FA10BD10B50446A1B2254824
:1051F00002F0B3FD2448046010BD70B52348006878
:10520000002802DA4FF0000409E020480068B0F5F9
:105210007A7F02DA1D48046801E04FF47A741C4872
:10522000066804FB06F04FF47A71B0FBF1F01949FF
:10523000096800EB01052846FFF7D6FF70BD0000A6
:1052400000040040280000200008004077000020F3
:105250002F020020BC012142000021429481224201
:10526000008022428C812242000C00400014004049
:1052700000100040690B00206D0B00203C0B00204B
:105280002C000020002C0140F80100209400002098
:10529000CC010020D00100200146088870472DE98C
:1052A000F04105460E4617464FF0000409E036F877
:1052B0001410284601F011FC05F1020504F101006B
:1052C00084B2BC42F3DBBDE8F08130B503460C4646
:1052D00015464FF0000209E01846FFF7DDFF24F8FD
:1052E000120003F1020302F1010082B2AA42F3DBD1
:1052F00030BD2DE9F05F80468A461746B8F1006F51
:1053000002D33B48804501D3BDE8F09F01F07BFA12
:10531000A8F1006B4FEADB25CBF34909C9F580649E
:10532000A74200DC3C4653E04FF0006101EBC52092
:105330004A143049FFF7C9FF4FF000060CE009EBB3
:1053400006002C4931F81000A0F57F41FF3900D04C
:1053500004E006F1010086B2A642F0DB00BFA642DF
:105360001DDA4FF0006101EBC52001F09AFA4FF011
:10537000000609E03AF8160006EB09011D4A22F87A
:10538000110006F1010086B2A642F3DB4FF0006186
:1053900001EBC5204A141749FFF781FF04E02246BC
:1053A00051464046FFF77BFFA74200D111E005F1CF
:1053B00001054FF000090AEB440AA044A7EB0400E2
:1053C00087B2B7F5806F02DD4FF4806400E03C46A1
:1053D000AAE700BF01F023FA00BF95E713B5044622
:1053E0004FF0010201A92046FFF783FF1CBD00001A
:1053F00000000808BC110020094880470948004700
:10540000FEE7FEE7FEE7FEE7FEE7FEE7FEE7FEE774
:10541000FEE7000004480549054A064B70470000B6
:10542000F50B000831010008281B0020282100206E
:10543000281D0020281D002010B50446DE488442A7
:1054400008D10121042000F07FFB0021042000F09E
:105450007BFB46E0D948844208D10121082000F0B6
:1054600073FB0021082000F06FFB3AE0D44884422F
:1054700008D10121102000F067FB0021102000F06E
:1054800063FB2EE0CF48844208D10121202000F0A8
:105490005BFB0021202000F057FB22E0CA48844239
:1054A00008D10121402000F04FFB0021402000F0F6
:1054B0004BFB16E0C548844208D10121802000F052
:1054C00043FB0021802000F03FFB0AE0C0488442FB
:1054D00007D10121801500F037FB0021A01500F055
:1054E00033FB10BD10B50121084600F02DFB002153
:1054F000012000F029FB10BD2DE9F04102464FF0DC
:1055000000052E46284603460446074691F803C088
:105510000CF00F0591F803C01CF0100F03D091F8A8
:1055200002C04CEA0505B1F800C01CF0FF0F35D0F1
:1055300014684FF000002EE04FF0010C0CFA00F35D
:10554000B1F800C00CEA03069E4222D14FEA800364
:105550004FF00F0C0CFA03F724EA070405FA03FCDA
:105560004CEA040491F803C0BCF1280F06D14FF0B7
:10557000010C0CFA00FCC2F814C00AE091F803C058
:10558000BCF1480F05D14FF0010C0CFA00FCC2F839
:1055900010C000F101000828CED31460B1F800C09B
:1055A000BCF1FF0F38DD54684FF0000031E000F12E
:1055B000080C4FF0010808FA0CF3B1F800C00CEA2F
:1055C00003069E4223D14FEA80034FF00F0C0CFAE2
:1055D00003F724EA070405FA03FC4CEA040491F8F3
:1055E00003C0BCF1280F05D100F1080C08FA0CF833
:1055F000C2F8148091F803C0BCF1480F07D100F144
:10560000080C4FF0010808FA0CF8C2F8108000F1FD
:1056100001000828CBD35460BDE8F0814FF6FF713C
:1056200001804FF0020181704FF00401C17070479A
:1056300002464FF0000093680B4202D04FF0010089
:1056400001E04FF0000070470146886880B2704763
:1056500002464FF00000D3680B4202D04FF0010029
:1056600001E04FF0000070470146C86880B2704703
:1056700001617047416170470AB1016100E0416119
:105680007047C16070474FF4803242EA0102826184
:105690008161826182698269704702464FF0000031
:1056A0004C4B18684FF6807300EA030040EA021082
:1056B00040EA0100474B186070474749C86170478E
:1056C000F0B50A464FF000031C4619460D4600F09F
:1056D0000046B6F1004F02D13E4EF16901E03D4E69
:1056E0007168C0F3034583B200F44016B6F5401F5D
:1056F00008D121F07061374E766826F07066354F1C
:105700007E6017E000F48016B6F5801F08D14FF0D8
:10571000030606FA05F421EA040141F0706109E08C
:105720004FEA50564FEA061603FA06F621EA06013A
:1057300041F070613AB14FEA50564FEA061603FA4B
:1057400006F646EA010100F00046B6F1004F02D12C
:10575000204EF16101E01F4E7160F0BD30B54FF099
:1057600000024FEA81734FEA13744FF00F0303FAFC
:1057700004F21A4B4FEAA10453F8243023EA02033F
:10578000164C4FEAA10544F8253023464FEAA10400
:1057900053F824304FEA81744FEA147400FA04F489
:1057A00043EA04030D4C4FEAA10544F8253030BD0F
:1057B0000B4908607047000000080140000C0140E0
:1057C000001001400014014000180140001C01407D
:1057D000002001400000014000002042080001407C
:1057E000DC002042F748006840F00100F5490860FD
:1057F00008464068F44900EA0100F249486008465A
:105800000068F24900EA0100EE49086008460068B5
:1058100020F4802008600846406820F4FE004860BC
:105820004FF41F0088607047E649096821F4803111
:10583000E44A11601146096821F480211160B0F535
:10584000803F03D0B0F5802F0ED106E0DD49096816
:1058500041F48031DB4A116007E0DA49096841F41C
:10586000A021D84A116000E000BF00BF704710B50A
:1058700001464FF00002134610464FEA6112012A1A
:1058800002D1D04C236806E0022A02D1CD4C236A13
:1058900001E0CC4C636A01F01F024FF0010404FAEE
:1058A00002F41C4202D04FF0010001E04FF0000072
:1058B00010BD70B54FF000042546264600BF3120CC
:1058C000FFF7D5FF064604F10104B4F5A06F01D03F
:1058D000002EF4D03120FFF7CAFF10B14FF00105C0
:1058E00001E04FF00005284670BD01464FF0000072
:1058F000B44A106820F0F80040EAC1001060704718
:10590000B3490860704702464FF00000AD4B58683D
:1059100020F47C1042EA010343EA0000A94B5860DE
:105920007047AB490866704701464FF00000A54A32
:10593000506820F0030040EA010050607047A14821
:10594000406800F00C00704701464FF000009D4A8F
:10595000506820F0F00040EA0100506070470146B6
:105960004FF00000974A506820F4E06040EA0100E0
:105970005060704701464FF00000924A506820F492
:10598000605040EAC1005060704731B18D4A527A90
:1059900042EA00028B4B5A7208E08A4A527A6FEA56
:1059A0000003DBB202EA0302864B5A727047894950
:1059B0000860704701464FF00000824A506820F4AA
:1059C000404040EA0100506070474FF00001824AB9
:1059D00011707C4A82F82010012802D004280AD1D4
:1059E00004E04FF001017C4A117005E04FF0050121
:1059F000794A117000E000BF00BF70477749086026
:105A000070477049096A41EA00016E4A11627047A5
:105A100073490860704730B54FF000010A460C46E4
:105A20000B46684D6D6805F00C0121B1042905D0C5
:105A3000082927D105E06B4D056026E0694D05601A
:105A400023E0604D6D6805F470125E4D6D6805F4DD
:105A500080344FF0020505EB924224B9624D02FBFF
:105A600005F505600DE0574D6D6815F4003F04D055
:105A70005D4D02FB05F5056003E05A4D02FB05F59F
:105A8000056002E0574D056000BF00BF4D4D6D68D9
:105A900005F0F0014FEA1111544D6B5C056825FAD1
:105AA00003F54560474D6D6805F4E0614FEA11214B
:105AB0004E4D6B5C456825FA03F58560414D6D6878
:105AC00005F460514FEAD121484D6B5C456825FAD9
:105AD00003F5C5603B4D6D6805F440414FEA9131D7
