:020000040800F2
:10000000E81D002051510008CD080008CF08000865
:10001000D3080008D7080008DB080008000000002B
:10002000000000000000000000000000DF080008E1
:10003000E108000800000000E3080008E5080008E7
:100040006B5100086B5100086B5100086B510008A0
:100050006B5100086B5100086B5100086B51000890
:100060006B5100086B5100086B5100086B51000880
:100070006B5100086B5100086B5100086B51000870
:100080006B5100086B5100086B5100086B51000860
:100090006B5100086B5100086B5100086B51000850
:1000A0006B5100086B5100086B5100086B51000840
:1000B000EB150008691500087B1600086B51000855
:1000C0006B5100086B5100086B5100086B51000820
:1000D0006B510008933F00086B51000887390008F6
:1000E000651800086B5100086B510008DFF80CD050
:1000F00011F0AEFD00480047EF060008E81D0020A3
:100100002DE9F0474FF48372FD49FE4803F0EAF908
:10011000FB4890F816A090F83600FB490870F848A4
:100120000078FA490870F64890F82F00F8490870EE
:10013000F34890F83000F7490870F1484078F649E4
:100140000870EF4890F83700F4490870EC480079DF
:10015000F34908700020F3490870E94890F824003A
:10016000F1490870E64890F8B300F0490860E448A7
:100170004079EF490860E2488079EE490870E0482C
:10018000C079ED490860DE48007AEC490870DC4827
:10019000407AEB490860DA48807AEA490870D84822
:1001A000C07AE9490860D648007BE8490870D4481D
:1001B000817C01EB0A20E6490860D148C07CE54912
:1001C0000870CF48007DE44908600846006800EBED
:1001D00080004000E1490860C948407DE04908606E
:1001E000C7488078DF4908700020DF490870DF4980
:1001F0000870C34890F82000DD490870C04890F8A6
:100200002D00DC490870BE4890F82E00DA490870CD
:10021000BB48407DD9490870B948417D90F82C0011
:1002200001EB0020B64991F82E10401AB44991F81C
:100230002D10C91E48430721B0FBF1F0B04991F8D9
:100240002E100844401DCE490860AD4890F8AF60BC
:1002500090F8B07090F8B18090F8B2904FEA0960D1
:1002600000EB084101EB07203044C6490860092033
:10027000C5490870B74805780A2D00D200BF00BFF5
:100280000020C2490870AE480068AE49097801EB09
:100290000020BF490860AC480068AC49097801EB10
:1002A0000020BC49086008460068B9490968401A3E
:1002B000B94908609E4800689E49097801EB002012
:1002C000B64908609C4800689C49097801EB002009
:1002D000B349086008460068B0490968401AB14946
:1002E00008608748807BB04908608548C07BAF497B
:1002F00008708348007CAE4908608148407CAD4965
:100300000870A9480068A949097801EB0020AA49AA
:100310000860A7480068A749097801EB0020A749B1
:10032000086008460068A4490968401AA4490860A2
:10033000734890F82700A34908700846007820B950
:100340006F48407BA049087002E001209E49087078
:100350006B48407B9C49087000209C4908709C4970
:1003600008709C49087001209B49087000209B4937
:1003700008709B4908709B4908709B4908709B490D
:1003800008709B4908609B489B49086000209B4976
:1003900008709B4908709B4908709B4908709B49ED
:1003A00008709B4908709B490870554890F82100D7
:1003B00099490870524890F82300984908705048AD
:1003C00090F82600964908704D4890F82F00504943
:1003D0000870002093490870934908704848C47F0A
:1003E0000020924908701CB991489249086008E0C1
:1003F000012C03D190488F49086002E08F488D4955
:10040000086000208E4908708E4908708E49086087
:100410008E4908703A4890F82000554908703848CD
:1004200090F824008A490870354890F830008949CE
:1004300008703348C07D884908703148007E87497C
:1004400008702F48407E864908702D48807E854977
:1004500008702B48C07E844908702948007F834972
:1004600008702748407F824908702548807F81496D
:100470000870234890F831007F490870204890F8B0
:1004800032007E4908701E4890F833007C4908709D
:100490001B4890F834007B490870194890F83500E3
:1004A000794908703E4800684FF4A671484340F609
:1004B000FF7190FBF1F0C0F5AE70744908603748E9
:1004C00000684FF4A671484340F6FF7190FBF1F0CD
:1004D000C0F5AE706E490860094890F822006D4979
:1004E000087000206C4908706C4908706C490870ED
:1004F0006C4908706C4908706C4908702748D7E04F
:10050000C0160020000003083C0000203E00002030
:100510008800002041000020D10000204001002080
:100520004000002048000020A4000020B800002067
:100530004C0000207F0000205000002080000020A0
:10054000540000208100002058000020820000207C
:100550005001002046000020780E00207C0E002074
:10056000840E00209C0E0020B20E0020830000208C
:10057000A70E0020740E0020750E0020760E0020BD
:10058000700E0020E80000203000002069020020EA
:10059000FC000020F4000020F80000205C00002097
:1005A00060000020640000206C0100207D0000201D
:1005B000700100207E0000206401002068010020FE
:1005C00060010020B40E002045000020880E0020AD
:1005D000890E0020D4000020A60E0020B30E0020BB
:1005E000600E002047000020800E00205E010020E9
:1005F000940E0020CE180020640E0020680E00200B
:100600005C0100205D0100208400002085000020A6
:100610008600002087000020A80E0020AC0E0020DD
:10062000B10E0020C801002000010020B00E002003
:100630002B8F000834000020B1900008558D000871
:1006400018020020690E00208C0E002001010020FD
:10065000AD0E00207C0000209E0E00209F0E00208A
:10066000A00E0020A10E0020A20E0020A30E00204C
:10067000A40E0020A50E00206A0200206B020020BC
:100680006C0200206D0200206E020020CC000020D1
:10069000C8000020A90E0020AA0E0020AB0E0020EA
:1006A000C4000020BD0E0020AE0E0020AF0E0020C2
:1006B00000684FF4A671484340F6FF7190FBF1F0DB
:1006C000C0F5AE705D4908605D4800684FF4A671E2
:1006D000484340F6FF7190FBF1F0C0F5AE70594908
:1006E000086002F086F802F093F8BDE8F08700F0A9
:1006F0006AF9482004F08AFC04F024FD002148F641
:10070000A04002F07BFF40F6AC514F4806F07CFD64
:1007100000F0DAF900F020FA01F0B8FB4FF41640CF
:1007200003F0ECFB4FF4165003F099FB02F096F83F
:1007300000F0FAFF00F0BCFE01F0B9FF01F0A4FFE9
:1007400003F059F8FFF7DCFC0020404908604049FD
:10075000C1F8A4013F4908603F4908703F4800784C
:10076000FF2804D1002039490C39086003E001203A
:1007700036490C3908604FF4967004F05CFC00F0C8
:10078000F5FD0020364908705820364908600120E0
:10079000354908702D490860344835490860002003
:1007A000344908703449087001203449C1F8BC014B
:1007B0002849091D0860091F0860002030490860A9
:1007C00000F0D4FD2F48007840B92FA1802000F020
:1007D0004CFA31A1902000F048FA03E032A18020C9
:1007E00000F043FA40F2DC5004F025FC40F2DC500B
:1007F00004F021FC4FF47A7004F01DFC0020134932
:1008000008601349C1F8A4011249086000F0F4FF20
:100810000C2000F0CFFF284908600020274908700D
:100820002749087027482849086005E010480068F3
:100830008047022004F06FFCF8E70000C8000020A9
:1008400060000020CC000020002C0140BC012142AF
:1008500000802142A0812142B40E00203C000020F3
:10086000680E00208C0E0020BE0E0020B190000803
:10087000340000205C0100205D01002000002142C6
:100880009400002045000020CAD7B4CECAB9D3C313
:10089000D0D0B3CCB1D80000D0EBCFC8B1EAB6A865
:1008A0002E2E2E2E2E2E0000706C65617365207723
:1008B0006169742E2E2E0000EC000020380000200C
:1008C0006F0200203C08002070020020704700BF2B
:1008D000FEE700BFFEE700BFFEE700BFFEE7704790
:1008E00070477047704700000CB5002001900090E1
:1008F0006C48006840F480306A49086000BF69486D
:10090000006800F4003000900198401C01900098AD
:1009100018B90198B0F5A06FF1D16248006800F4F1
:10092000003010B10120009001E0002000900098FC
:10093000012843D15C48006840F010005A49086023
:100940000846006820F0030008600846006840F090
:1009500002000860534840685249486008464068B1
:1009600048600846406840F4806048600846406837
:1009700020F47C1048600846406840F4E810486065
:100980000846006840F08070086000BF4548006875
:1009900000F000700028F9D04248406820F00300C1
:1009A000404948600846406840F00200486000BF87
:1009B0003C48406800F00C000828F9D10CBD10B587
:1009C000FFF792FF10BD10B53648006840F4803044
:1009D0003449086008464068344908403149486055
:1009E00008460068324908402E49086008460068F9
:1009F00020F4802008600846406820F4FE0048602B
:100A00004FF41F008860FFF7DAFF4FF000602949BC
:100A1000086010BD10B5002100200022214B5B684A
:100A200003F00C0121B1042906D0082928D107E0E0
:100A3000214B224C236027E01F4B204C236023E0F6
:100A4000184B5B6803F47010164B5B6803F480323C
:100A5000022303EB904022B9194B4343174C236008
:100A60000DE0104B5B6803F4003323B1144B434398
:100A7000124C236003E0104B4343104C236003E00F
:100A80000D4B0E4C236000BF00BF064B5B68C3F3E9
:100A900003130C4CE15C094B1B68CB40074C2360F3
:100AA00010BD000000100240002002400000FFF8CE
:100AB000FFFFF6FE08ED00E000127A0000000020C3
:100AC00000093D000400002008B50121082005F0C0
:100AD0006FFC4FF40070ADF8000010208DF803009B
:100AE00003208DF802006946194805F0A5F94FF476
:100AF0000071174805F04DFA4FF48070ADF8000012
:100B000010208DF8030003208DF80200694610487C
:100B100005F092F94FF480710D4805F03AFA012181
:100B2000042005F045FC4FF48050ADF80000102083
:100B30008DF8030003208DF802006946054805F092
:100B40007BF94FF48071034805F023FA08BD0000DB
:100B5000000C01400008014008B50121082005F003
:100B600027FC4FF40050ADF8000014208DF803006E
:100B700003208DF802006946F94805F05DF94FF44D
:100B80000051F74805F005FA0121202005F010FC7E
:100B90004FF48040ADF8000014208DF803000320CE
:100BA0008DF802006946EE4805F046F94FF48041A1
:100BB000EB4805F0EEF90121042005F0F9FB4FF4B4
:100BC0000040ADF8000014208DF8030003208DF8DC
:100BD00002006946E34805F02FF94FF40041E1486F
:100BE00005F0D7F908BD70B5044600251BE00020CC
:100BF000DD490860142004F08EFA04F0800020B172
:100C00000120D949091F086003E00020D649091FC7
:100C100008600120D4490860142004F07CFA6006C2
:100C2000040E681CC5B2082DE1DB70BD10B504468A
:100C3000F820FFF7D8FF04F0F000FFF7D4FFF02111
:100C400001EA0410FFF7CFFF10BD10B50446FA20EB
:100C5000FFF7C9FF04F0F000FFF7C5FFF02101EA3C
:100C60000410FFF7C0FF10BD704770B505460C4675
:100C70002846FFF7DBFF03E014F8010BFFF7E5FF61
:100C800020780028F8D170BD10B504462046FFF743
:100C9000CDFF1820FFF7D9FF1920FFF7D6FFB34883
:100CA000007820B9B2A19520FFF7DFFF03E0B2A1E1
:100CB0009520FFF7DAFF10BD10B50446AB48007869
:100CC00040B92046FFF7B2FF1820FFF7BEFF1920FA
:100CD000FFF7BBFF10BD70B506460C461546304603
:100CE000FFF7A4FF04F13001C8B2FFF7AEFF2E20DA
:100CF000FFF7ABFF05F13001C8B2FFF7A6FF2520D3
:100D0000FFF7A3FF70BD2DE9F04107460C461546DD
:100D10001E463846FFF78AFF04F13001C8B2FFF7DC
:100D200094FF05F13001C8B2FFF78FFF06F13001E3
:100D3000C8B2FFF78AFF2520FFF787FFBDE8F081E3
:100D40002DE9F04105460C464FF47A70B4FBF0F102
:100D500000FB11406421B0FBF1F0C6B26420B4FB8B
:100D6000F0F100FB11400A21B0FBF1F70A20B4FBBF
:100D7000F0F100FB114843463A4631462846FFF75A
:100D8000C2FFBDE8F0812DE9F04707460C464FF45D
:100D90007A70B4FBF0F0C5B24FF47A70B4FBF0F1A6
:100DA00000FB11406421B0FBF1F0C6B26420B4FB3B
:100DB000F0F100FB11400A21B0FBF1F80A20B4FB6E
:100DC000F0F100FB11493846FFF730FF2020FFF714
:100DD0003CFF2020FFF739FF1DB92020FFF735FF2A
:100DE00004E005F13001C8B2FFF72FFF1EB9202043
:100DF000FFF72BFF04E006F13001C8B2FFF725FF33
:100E000008F13001C8B2FFF720FF2E20FFF71DFFC9
:100E100009F13001C8B2FFF718FF4120FFF715FFB5
:100E2000BDE8F0872DE9F04705460C4642F2107008
:100E3000B4FBF0F0C6B242F21070B4FBF0F100FB6C
:100E400011404FF47A71B0FBF1F0C7B20846B4FB21
:100E5000F0F100FB11406421B0FBF1F000F0FF085D
:100E60006420B4FBF0F100FB11400A21B0FBF1F962
:100E70000A20B4FBF0F100FB114A2846FFF7D6FE2A
:100E800006F13001C8B2FFF7E0FE07F13001C8B249
:100E9000FFF7DBFE08F13001C8B2FFF7D6FE2E20C7
:100EA000FFF7D3FE09F13001C8B2FFF7CEFE0AF119
:100EB0003001C8B2FFF7C9FE2020FFF7C6FEBDE82B
:100EC000F0872DE9F04705460C4642F21070B4FB5E
:100ED000F0F0C6B242F21070B4FBF0F100FB11402A
:100EE0004FF47A71B0FBF1F0C7B20846B4FBF0F1F1
:100EF00000FB11406421B0FBF1F000F0FF0864201A
:100F0000B4FBF0F100FB11400A21B0FBF1F90A201B
:100F1000B4FBF0F100FB114A2846FFF787FE06F10B
:100F20003001C8B2FFF791FE07F13001C8B2FFF7F8
:100F30008CFE08F13001C8B2FFF787FE09F13001DD
:100F4000C8B2FFF782FE2E20FFF77FFE0AF13001C4
:100F5000C8B2FFF77AFE2020FFF777FEBDE8F087E2
:100F6000000C014000080140B881214245000020EA
:100F7000C8B7B6A800000000456E74657200000096
:100F80002DE9F04705460C4642F21070B4FBF0F034
:100F9000C6B242F21070B4FBF0F100FB11404FF406
:100FA0007A71B0FBF1F0C7B20846B4FBF0F100FB78
:100FB00011406421B0FBF1F000F0FF086420B4FBA5
:100FC000F0F100FB11400A21B0FBF1F90A20B4FB5B
:100FD000F0F100FB114A2846FFF728FE06F1300128
:100FE000C8B2FFF732FE07F13001C8B2FFF72DFE9D
:100FF00008F13001C8B2FFF728FE09F13001C8B28C
:10100000FFF723FE0AF13001C8B2FFF71EFE2020D1
:10101000FFF71BFEBDE8F0872DE9F04705460C46BB
:101020004FF47A70B4FBF0F0C6B24FF47A70B4FBB0
:10103000F0F100FB11406421B0FBF1F0C7B2642075
:10104000B4FBF0F100FB11400A21B0FBF1F80A20DB
:10105000B4FBF0F100FB11492846FFF7E7FD06F16C
:101060003001C8B2FFF7F1FD07F13001C8B2FFF758
:10107000ECFD08F13001C8B2FFF7E7FD09F13001DE
:10108000C8B2FFF7E2FDBDE8F0872DE9F34F8BB062
:101090000C46FEA30FCB07AD0FC52017C11700EB01
:1010A00011710911A0EB011101912016C11700EB7C
:1010B00011710911A0EB011102912015C11700EB6C
:1010C00011710911A0EB011103912014C11700EB5C
:1010D00011710911A0EB011104912012C11700EB4D
:1010E00011710911A0EB011105912011C11700EB3D
:1010F00011710911A0EB011106912046E11704EBD3
:1011000011710911A4EB01150F2D00D800E0002585
:1011100007A90198085C0090029811F800B00398A4
:1011200011F800A0049811F80090059811F80080BB
:1011300006980F5C07A8465D0B98FFF777FD0098AF
:10114000FFF783FD5846FFF780FD5046FFF77DFD12
:101150004846FFF77AFD4046FFF777FD3846FFF730
:1011600074FD3046FFF771FD0DB0BDE8F08F2DE93D
:10117000F04105460C466420B4FBF0F0C6B2642092
:10118000B4FBF0F100FB11400A21B0FBF1F70A209B
:10119000B4FBF0F100FB11482846FFF747FD06F1CC
:1011A0003001C8B2FFF751FD07F13001C8B2FFF7B7
:1011B0004CFD08F13001C8B2FFF747FDBDE8F081F2
:1011C0002DE9F04105460C460A2094FBF0F0C6B22A
:1011D0000A2094FBF0F100FB1140C7B22846FFF74C
:1011E00025FD06F13001C8B2FFF72FFD07F13001F0
:1011F000C8B2FFF72AFDBDE8F08170B505460C4680
:1012000026462846FFF712FD06F13001C8B2FFF767
:101210001CFD70BD2DE9F04105460C460A2094FBEB
:10122000F0F0C7B20A2094FBF0F100FB1140C6B207
:101230002846FFF7FBFC2020FFF707FD06F13001F1
:10124000C8B2FFF702FDBDE8F0812DE9F041074685
:101250000C4615461E46DDF818803846FFF7E6FCBA
:1012600004F13001C8B2FFF7F0FC05F13001C8B25B
:10127000FFF7EBFC06F13001C8B2FFF7E6FC2E20C9
:10128000FFF7E3FC08F13001C8B2FFF7DEFC2520D0
:10129000FFF7DBFCBDE8F0812DE9F04107460C4685
:1012A00015461E463846FFF7C1FC04F13001C8B2AE
:1012B000FFF7CBFC05F13001C8B2FFF7C6FC2E20CA
:1012C000FFF7C3FC06F13001C8B2FFF7BEFCBDE872
:1012D000F0812DE9F04107460C4615461E4638467A
:1012E000FFF7A4FC04F13001C8B2FFF7AEFC05F132
:1012F0003001C8B2FFF7A9FC06F13001C8B2FFF710
:10130000A4FCBDE8F0812DE9F04107460C461546E6
:101310001E46DDF818803846FFF788FC04F13001DE
:10132000C8B2FFF792FC05F13001C8B2FFF78DFC9F
:1013300006F13001C8B2FFF788FC08F13001C8B2ED
:10134000FFF783FCBDE8F08170B506460C461546F4
:101350003046FFF76BFC04F13001C8B2FFF775FCB3
:1013600005F13001C8B2FFF770FC70BD10B5302038
:10137000FFF75CFC0620FFF759FC0C20FFF756FC3A
:101380000120FFF753FC0220FFF750FC41F28830A8
:1013900003F0C1FE8020FFF749FC2020FFF755FC39
:1013A0002020FFF752FC2020FFF74FFC2020FFF702
:1013B0004CFC2020FFF749FC2020FFF746FC2020B2
:1013C000FFF743FC2020FFF740FC9020FFF72EFCA6
:1013D0002020FFF73AFC2020FFF737FC2020FFF702
:1013E00034FC2020FFF731FC2020FFF72EFC2020CA
:1013F000FFF72BFC2020FFF728FC2020FFF725FC1F
:1014000010BD10B53020FFF711FC0520FFF70EFCD2
:101410000F20FFF70BFC1420FFF708FC0120FFF75B
:1014200005FC0220FFF702FC41F2883003F073FE56
:101430008020FFF7FBFB2020FFF707FC2020FFF7B1
:1014400004FC2020FFF701FC2020FFF7FEFB2020FA
:10145000FFF7FBFB2020FFF7F8FB2020FFF7F5FB51
:101460002020FFF7F2FB9020FFF7E0FB2020FFF7A2
:10147000ECFB2020FFF7E9FB2020FFF7E6FB202014
:10148000FFF7E3FB2020FFF7E0FB07E030313233CA
:101490003435363738394142434445462020FFF73A
:1014A000D4FB2020FFF7D1FB2020FFF7CEFB10BD9F
:1014B0001FB50121022004F088FF0A20ADF80800C2
:1014C00041F61F40ADF804000020ADF80A00ADF869
:1014D000060001A98A4805F0A3F8012241218848A5
:1014E00005F015FC1D208DF8000000208DF801008E
:1014F00003208DF8020001208DF80300684603F0F8
:101500003EFE01217E4805F0E7FB1FBD1FB501210E
:10151000022004F05AFF0A20ADF8080041F61F40EF
:10152000ADF804000020ADF80A00ADF8060001A9EE
:10153000734805F075F801224121714805F0E7FB79
:101540001D208DF8000000208DF8010003208DF88B
:10155000020001208DF80300684603F010FE01210F
:10156000674805F0B9FB1FBD10B50121644805F0BF
:101570007CFE50B10121624805F088FE00216048E0
:1015800005F0AAFB01205F49087010BD1FB50121BD
:10159000084604F01AFFFA20ADF8080041F61F4093
:1015A000ADF804000020ADF80A00ADF8060001A96E
:1015B0004FF0804005F034F801224121880705F002
:1015C000A6FB1C208DF8000000208DF801000420EF
:1015D0008DF8020001208DF80300684603F0CFFD6E
:1015E0000121880705F078FB1FBD10B50121880790
:1015F00005F03BFE40B10121880705F047FE424857
:101600000068401C4049086010BD10B500203E49EC
:10161000086000214FF0804005F05EFB10BD1FB553
:101620000121042004F0D1FEFA20ADF8080041F6B3
:101630001F40ADF804000020ADF80A00ADF8060028
:1016400001A9324804F0ECFF012241212F4805F0A6
:101650005EFB1E208DF8000000208DF801000520A3
:101660008DF8020001208DF80300684603F087FD25
:101670000121264805F030FB1FBD10B5012123488C
:1016800005F0F3FD40B10121204805F0FFFD2048A1
:101690000068401C1E49086010BD10B500201C49A0
:1016A00008600021194805F017FB10BD10B504466D
:1016B000A1B2184805F0A8FD1748046010BD70B528
:1016C00016480068002801DA002409E01348006881
:1016D000B0F57A7F02DA1148046801E04FF47A74B9
:1016E0000F48066804FB06F04FF47A71B0FBF1F086
:1016F0000C49096845182846FFF7D8FF70BD00005F
:1017000000040040BE0E00204C01002000080040F4
:1017100048010020002C0140BC0000208C0000206B
:10172000600100206401002000B587B001214FF462
:10173000017004F03DFE4FF4004004F09DFD0720D1
:10174000ADF8040000208DF8070001A9284804F036
:1017500073FB284803F07CFD002002908DF80C00FC
:101760008DF80D004FF460200490002005900120BA
:101770008DF8180002A91F4803F091FD01211D48B2
:1017800003F0B9FD1B4803F0D8FD00BF194803F072
:10179000D9FD0028FAD1174803F0DEFD00BF154837
:1017A00003F0DFFD0028FAD10121124803F0E3FD28
:1017B00007B000BD10B504460E4800684FF6FD7135
:1017C00008400C490860072301222146094803F01C
:1017D000FEFD0121074803F0CEFD00BF02210548B0
:1017E00003F03AFF0028F9D0024803F057FE10BD7D
:1017F00000100140002401401FB50121F84804F009
:10180000ECFB0121092004F0D3FD4FF48050ADF82A
:101810000C0048208DF80F0003A9F24804F00CFBDF
:101820000C21012004F01EFC4FF480500190002098
:101830008DF808000C208DF8090001208DF80A00B1
:1018400001A803F03BFF28208DF8000002208DF84E
:10185000010001208DF802008DF80300684603F0B6
:101860008EFC1FBD10B50A2003F001FC4FF4805020
:1018700003F08AFF28B10020DB490860DB49C1F88A
:10188000A0014FF4805003F090FF4FF4805003F01C
:1018900077FF0120D6490870D349086010BD10B504
:1018A0000120D4490860142003F03BFC0020D049FB
:1018B0000870D149C1F8A40110BD10B5CC4800781A
:1018C000012872D100F04CFF0120C7490860FFF7E2
:1018D0004DFDCA48007820B9C9A18020FFF7C5F99D
:1018E00003E0C9A18020FFF7C0F98AE200F0FEFF03
:1018F000C74801788320FFF743FB642003F09BFB7C
:10190000C3480078252831D2DFE800F03013315089
:10191000F3F2F1F0EF6E30EE8C30303030303030AA
:1019200030AAC8F43030ECEBEA30E9303030E8E788
:10193000E600B248007820B9B6A19020FFF795F9EB
:1019400003E0B6A19020FFF790F90120B749087095
:10195000A5490860A549C1F8A0010F2003F0E1FBEB
:101960000020A1490860A149C1F8A001DFE1A34816
:10197000007820B9A7A19020FFF777F903E0A7A18D
:101980009020FFF772F90120A84908709649086075
:101990009649C1F8A0010F2003F0C3FB0020924933
:1019A00008609249C1F8A001C1E12CE29348007897
:1019B00020B998A19020FFF758F903E097A1902053
:1019C000FFF753F901209949087087490860874952
:1019D000C1F8A0010F2003F0A4FB00208249086099
:1019E0008249C1F8A001A2E18448007820B989A108
:1019F0009020FFF73AF903E088A19020FFF735F92E
:101A000001208A490870784908607849C1F8A00126
:101A10000F2003F086FB0020734908607349C1F86A
:101A2000A00184E17548007820B97AA19020FFF7E1
:101A30001CF903E079A19020FFF717F901207B49F9
:101A40000870694908606949C1F8A0010F2003F0D6
:101A500068FB0020644908606449C1F8A00166E1A0
:101A60006648007820B96BA19020FFF7FEF803E0EC
:101A70006AA19020FFF7F9F801206C4908705A49D3
:101A800008605A49C1F8A0010F2003F04AFB00206A
:101A9000554908605549C1F8A00148E15748007808
:101AA00020B95CA19020FFF7E0F803E05BA1902053
:101AB000FFF7DBF801205D4908704B4908604B498E
:101AC000C1F8A0010F2003F02CFB0020464908605C
:101AD0004649C1F8A0012AE1D3E0C1E071E027E066
:101AE00018E10AE1FCE005E0DCE0EAE05AE04AE067
:101AF0003AE02AE04148007820B946A19020FFF75B
:101B0000B4F803E045A19020FFF7AFF80120474962
:101B10000870354908603549C1F8A0010F2003F06D
:101B200000FB0020304908603049C1F8A001FEE008
:101B30003248007820B93EA19020FFF796F803E0E4
:101B40003DA19020FFF791F8F1E02C48007820B9F2
:101B50003DA19020FFF789F803E03DA19020FFF719
:101B600084F801F09CFBE2E02448007820B936A11B
:101B70009020FFF77AF803E035A19020FFF775F881
:101B800001F08DFBD3E01D48007820B92EA19020F4
:101B9000FFF76BF803E02EA19020FFF766F801F045
:101BA0007EFBC4E01548007820B927A19020FFF7FC
:101BB0005CF803E026A19020FFF757F801F06FFBD7
:101BC000B5E00E48007820B91FA19020FFF74DF82E
:101BD00003E01FA19020FFF748F801F060FBA6E0AA
:101BE00000023000000C0140A4812142008021420B
:101BF000600E0020A4012242000022424500002085
:101C0000B9CAD5CF000000006661756C7400000091
:101C10003F010020B9FDC1F700000000637572723A
:101C2000656E74206F76657200000000B30E0020B0
:101C3000C4A3BFE900000000706F776572206D6F6C
:101C400064756C6500000000B9FDD1B900000000AA
:101C5000766F6C74616765206F76657200000000B6
:101C60006948007828B9AFF220019020FEF7FDFF07
:101C700004E0AFF224019020FEF7F7FF01F00FFB24
:101C800055E06148007828B9AFF244019020FEF792
:101C9000ECFF04E0AFF248019020FEF7E6FF01F010
:101CA000FEFA44E05848007820B958A19020FEF789
:101CB000DCFF03E057A19020FEF7D7FF01F0EFFA19
:101CC00035E05148007820B956A19020FEF7CDFFAD
:101CD00003E056A19020FEF7C8FF01F03BFA26E092
:101CE0004948007820B954A19020FEF7BEFF03E0D8
:101CF00053A19020FEF7B9FF19E04348007820B9BE
:101D00004DA19020FEF7B1FF03E04DA19020FEF71A
:101D1000ACFF0CE03C48007820B947A19020FEF7CA
:101D2000A4FF03E046A19020FEF79FFF00BF00BF85
:101D300002F0B7FC45480078012809D1FFF7AFFD54
:101D400001204349087001F059FA01F0FCFA59E00A
:101D500000F003F93F48007801280ED100203E49E9
:101D600008703C4908700120394908703B483C49DB
:101D7000086000203B49086044E03B480068E8BB3D
:101D80004FF4FA5003F0C7F937480068B0BB4FF47E
:101D9000FA5003F0C0F93448006878BB002031499C
:101DA00008603249C1F8BC0131490860FFF7DEFA2A
:101DB0001548007820B92FA18120FEF756FF03E0D7
:101DC0002EA18120FEF751FFFFF769FD0120204978
:101DD000087000BF244800680028FBD04FF47A70D8
:101DE00003F029F900202749087001F007FA01F0F3
:101DF000AAFA01F0F9FA0020234900E001E0087096
:101E000000E073E500BF10BD45000020C7B7D1B9A1
:101E100000000000766F6C74616765206C61636B15
:101E200000000000B9FDCEC20000000074656D70B6
:101E30002E206F7665720000C8B1CFE00000000070
:101E40007068617365206C61636B0000B30E0020E5
:101E5000470000205D0100205C010020719C00080B
:101E600034000020A4812142380122420000214296
:101E70008C0E0020B8B4CEBB2000000072657365E4
:101E800074000000600E00206902002008B50121E6
:101E9000102004F08DFA4CF20800ADF80000042088
:101EA0008DF8030003208DF802006946FE4803F018
:101EB000C3FF0121102004F07BFA4FF40050ADF86D
:101EC000000048208DF8030003208DF802006946C9
:101ED000F54803F0B1FF4FF40070ADF8000010209A
:101EE0008DF8030003208DF802006946EE4803F0E8
:101EF000A3FF0121042004F05BFA4120ADF80000AB
:101F000048208DF8030003208DF802006946E74859
:101F100003F092FF0121042004F04AFA1020ADF8EA
:101F2000000004208DF8030003208DF802006946AC
:101F3000DE4803F081FF0121082004F039FAC020B7
:101F4000ADF8000048208DF8030003208DF8020052
:101F50006946D74803F070FF08BD10B5D548006842
:101F600000BBFFF752FBFFF711FBD34800780028B6
:101F700017D1D24800780028FAD1D148007800283B
:101F8000F6D1D04800780028F2D1FFF748FBFFF7E0
:101F90003CFBFFF7FBFA0020CB4908600120C74952
:101FA0000870BAE0C848BC38006800BBFFF72DFBDA
:101FB000FFF7ECFAC04800780028F2D1BF4800785B
:101FC0000028EED1BE4800780028EAD1BD4800784C
:101FD0000028E6D1FFF723FBFFF717FBFFF7D6FA40
:101FE0000020B94908600120B349087095E0B14864
:101FF0002C38006838B1B5480078032829D1B44896
:102000000078012825D1FFF700FBFFF7BFFAAA48A7
:1020100000780028C5D1A948007800287DD1A848BB
:102020000078002879D1A7480078002875D10C20C5
:10203000FFF7C0FBA7490860FFF7F1FAFFF7E5FAE1
:10204000FFF7A4FA0020A049086001209C4908700D
:1020500063E09848001D006838B19C480078022869
:1020600029D19B480078012825D1FFF7CEFAFFF748
:102070008DFA9148007800284FD1904800780028C8
:102080004BD18F480078002847D18E48007800282F
:1020900043D10C20FFF78EFB8E490860FFF7BFFA93
:1020A000FFF7B3FAFFF772FA0020874908600120B2
:1020B0008449087031E08848006818B9874800787A
:1020C00001282AD17C480078012802D1844908706F
:1020D00016E07A480078012803D102208049087070
:1020E0000EE077480078012803D103207C4908706E
:1020F00006E074480078012802D10420784908706D
:10210000FFF7CBFA0020754908706B4908706B49DE
:1021100008706B4908706B4908706F480068502858
:102120002DD965480078012802D16E4908701FE05A
:1021300062480078012806D102206A49087001200F
:102140006949087014E05E480078012806D1032030
:102150006449087001206149087009E05948007815
:10216000012805D104205F49087001205B490870EF
:10217000FFF793FA002050490870504908705B48F7
:102180000068B0F5487F08D9FFF73FFA5848006863
:10219000012802D001204C49086010BD10B5454807
:1021A0000068C0B944480078002813D1434800783B
:1021B0000028FAD1424800780028F6D1414800783A
:1021C0000028F2D1FFF72BFA00203F4908600120D8
:1021D0003A490870C9E03C48BC380068C0B9364884
:1021E00000780028F6D1354800780028F2D134482C
:1021F00000780028EED1334800780028EAD1FFF7B4
:102200000EFA00203049086001202B490870ACE02C
:1022100028482C38006838B12C480078032821D190
:102220002B48007801281DD1234800780028D1D1FF
:1022300022480078002814D121480078002810D1C5
:102240002048007800280CD10C20FFF7B3FA214970
:102250000860FFF7E4F900201B49086001201849D5
:10226000087082E01348001D006838B117480078F4
:10227000022848D116480078012844D10E48007839
:10228000002872D10D48007800286ED10C480078E3
:1022900000286AD10B48007828B90C20FFF78AFA89
:1022A0000C49086026E060E0001001400008014091
:1022B000000C0140380122428400002085000020EB
:1022C0008600002087000020BC012142AA180020BF
:1022D0003D000020DC000020480100201802002002
:1022E0005C0100205D010020480000204C0100201E
:1022F000B8000020FFF793F90020BD4908600120D5
:10230000BC49087031E0BC48006818B9BB48007887
:1023100001282AD1BA480078012802D1B9490870A9
:1023200016E0B9480078012803D10220B5490870A9
:102330000EE0B6480078012803D10320B1490870A7
:1023400006E0AC480078012802D10420AD490870AD
:10235000FFF7A3F90020A9490870A9490870AA4904
:102360000870AA490870A3490870A348006850285B
:102370002DD9A3480078012802D1A54908701FE093
:10238000A1480078012806D10220A1490870012047
:10239000A049087014E09D480078012806D1032068
:1023A0009B49087001209549087009E09148007820
:1023B000012805D104209649087001208F49087032
:1023C000FFF76BF900208E4908708F49087092481A
:1023D0000068B0F5487F01D9FFF717F910BD10B5B7
:1023E000FFF7DCFE87480078032824D100208549C8
:1023F0000870874908700C20FFF7DCF987490860EE
:10240000084600688649096888420AD983480068F6
:1024100083490968401A05280DD9FF2081490870B1
:1024200009E07F4800687D490968401A052802D9FB
:1024300000207C49087073480078042824D10020CB
:1024400070490870724908700C20FFF7B3F973499E
:102450000860084600687249096888420AD96F48CE
:1024600000686F490968401A02280DD900206D499B
:10247000087009E06A48006868490968401A02283B
:1024800002D9FF206749087010BD10B500205D49D2
:1024900008705F4908706449087064490860FEF775
:1024A00065FF6348007820B962A18120FEF7DDFB5B
:1024B00007E064A18020FEF7D8FB66A19020FEF71C
:1024C000D4FB00BF654800680128FBD16348303861
:1024D00000680128F6D16148001F00680128F1D189
:1024E0004348BC3800680128ECD15D485D4908606C
:1024F000FDF706FE10BD10B50020424908704449A2
:102500000870494908704949086003205649086025
:10251000FEF72CFF4648007820B946A18120FEF73F
:10252000A4FB07E047A18020FEF79FFB49A1902074
:10253000FEF79BFB4D484E49086000204D4908704E
:102540004D4908704D4908704D4908704D49087053
:1025500000BF424800680128FBD14048303800687D
:102560000128F6D13D48001F00680128F1D120481C
:10257000BC3800680128ECD139483A49086008465F
:1025800000688047FDF7BCFD10BD10B5FEF7EEFEFC
:1025900002203549086037480078401E40B235496E
:1025A0000870084690F90000B0F1FF3F01DAFF2003
:1025B0000870304890F90000002818DB2D4800789A
:1025C00020B92E4800782C49087010E0294800787E
:1025D000012804D12A4800782749087007E02548D7
:1025E0000078022803D1274800782349087010BDDD
:1025F000BC01214287000020480100201802002071
:10260000840000205C01002085000020860000205E
:102610005D010020480000204C010020E000002067
:10262000DC000020C5000020690200208C0E002084
:1026300045000020B7B5BBD8B9A4D7F7D7B4CCAC08
:10264000000000002020676F20746F206C6F6361B2
:102650006C000000636F6E74726F6C003C0122426C
:10266000B190000834000020940000203C080020B5
:1026700070020020380000206F0200203900002086
:102680003A0000203B00002008B50121042003F09F
:102690008FFE0220ADF8000048208DF803000320D3
:1026A0008DF8020069465C4803F0C6FB08BD08B51A
:1026B0000121102003F07CFE4020ADF80000102026
:1026C0008DF8030003208DF802006946534803F09B
:1026D000B3FB0121042003F06BFE2020ADF80000C5
:1026E00010208DF8030003208DF8020069464A4847
:1026F00003F0A2FB08BD4A48007820B900204949F0
:102700000870494908700120484908704849086024
:1027100000204849C1F89401012047490870404908
:1027200008704649087070473D480078012804D178
:1027300000203C4908703C49087001203B49087062
:1027400000203B49086001203A49C1F894013A4908
:10275000087000203249087001203849087070471D
:1027600010B50020324908603249C1F8940132495D
:1027700008702E49087032490860091F086001205E
:1027800030490870002027490870274908702E49F1
:10279000087000F04AF900F099F9284800780128FB
:1027A00023D12A480068401C284908600868C117DE
:1027B00000EB11610912A0EB0121254A82F8AF104C
:1027C00022480088000A114681F8B0001F480068BE
:1027D000000C81F8B1001D480068000E81F8B200BD
:1027E0004FF483721B4800F08EFE002013490870DE
:1027F00010BD10B518480078012805D1E823032240
:102800000121202001F0D3FD00201349087010BDE4
:102810000120114908707047000801400010014074
:10282000D2000020800E0020AA0E0020BC0E002046
:102830009801224200002142D4000020E400002040
:10284000A4812142A60E002083000020E800002081
:10285000C016002000000308D300002008B50121A5
:10286000042003F0A5FD4FF40060ADF80000102037
:102870008DF8030003208DF802006946F94803F043
:10288000DBFA0121102003F093FD4FF4EC50ADF87A
:10289000000010208DF8030003208DF80200694627
:1028A000F14803F0C9FA0121082003F081FD182046
:1028B000ADF8000010208DF8030003208DF8020011
:1028C0006946EA4803F0B8FA0121202003F070FDC0
:1028D0000420ADF8000010208DF8030003208DF8CF
:1028E00002006946E24803F0A7FA08BDE148007813
:1028F000082809D1E048007818B90120DF490860AC
:1029000002E00020DD490860DD48007808280BD18E
:10291000DC48007820B90120D849091D086003E08F
:102920000020D649091D0860D748007808280BD137
:10293000D648007820B90120D0490831086003E06A
:102940000020CE4908310860D1480078082809D114
:10295000D048007818B90120CF49086002E0002073
:10296000CD490860CD480078082809D1CC480078C6
:1029700018B90120CB49086002E00020C94908606D
:10298000704700B5BB480078072809D1BA480078DD
:1029900018B90120B949086002E00020B749086071
:1029A000B748007807280BD1B648007820B9012035
:1029B000B249091D086003E00020B049091D086004
:1029C000B148007807280BD1B048007820B9012021
:1029D000AA490831086003E00020A84908310860CE
:1029E000AB480078072809D1AA48007818B9012017
:1029F000A949086002E00020A7490860A7480078BC
:102A0000072809D1A648007818B90120A54908600F
:102A100002E00020A3490860A348007840F00800C5
:102A2000A1490870FFF762FF00BD924800780628B0
:102A300009D19148007818B900209049086002E057
:102A400001208E4908608E48007806280BD18D48F9
:102A5000007820B900208949091D086003E00120A1
:102A60008649091D08608848007806280BD18748E8
:102A7000007820B9002081490831086003E0012076
:102A80007E490831086082480078062809D18148CB
:102A9000007818B900208049086002E001207E49D2
:102AA00008607E480078062809D17D48007818B96A
:102AB00000207C49086002E001207A4908607A48D9
:102AC000007800F0FB00784908707047694800788A
:102AD000072809D16848007818B9002067490860BC
:102AE00002E00120654908606548007807280BD19D
:102AF0006448007820B900206049091D086003E09F
:102B000001205E49091D08605F48007807280BD145
:102B10005E48007820B9002058490831086003E079
:102B2000012056490831086059480078072809D122
:102B30005848007818B900205749086002E0012081
:102B40005549086055480078072809D1544800784D
:102B500018B900205349086002E00120514908607B
:102B60005148007800F0F7004F490870704700B5F1
:102B700040480078062809D13F48007818B901205C
:102B80003E49086002E000203C4908603C4800786B
:102B900006280BD13B48007820B901203749091D90
:102BA000086003E000203549091D086036480078B8
:102BB00006280BD13548007820B901202F4908316B
:102BC000086003E000202D49083108603048007893
:102BD000062809D12F48007818B901202E4908602D
:102BE00002E000202C4908602C480078062809D112
:102BF0002B48007818B901202A49086002E000201B
:102C0000284908602848007840F0040026490870E8
:102C1000FFF76CFE00BD00B52448007820B9FFF72F
:102C2000A6FFFFF753FF03E0FFF7FFFEFFF7A9FE44
:102C300000BD1048007848B90F48007818B9012045
:102C40000E49086002E000200C4908600C4800783A
:102C500038B90C48007858BB01200849091D0860A4
:102C60002AE029E00008014000100140000C01406A
:102C7000001401409E0E00206A020020A80122429A
:102C80009F0E00206B020020A00E00206C0200208E
:102C9000A10E00206D02002088812242A20E002099
:102CA0006E0200208C812142C4000020D20000204E
:102CB000FFE70020FA490860FA48007858B9FA4856
:102CC000007820B90120F649091D086003E00020C2
:102CD000F349091D0860F548007848B9F4480078C0
:102CE00018B90120F349086002E00020F1490860AA
:102CF000F148007848B9F148007818B90120F04946
:102D0000086002E00020EE4908607047ED48007856
:102D100058B9ED48007820B90020E149091F086042
:102D200003E00120DE49091F0860E848007848B93F
:102D3000E748007818B90020D949086002E001206E
:102D4000D7490860D748007858B9D748007820B9E3
:102D50000020D349091D086003E00120D049091D66
:102D60000860D248007848B9D148007818B90020E6
:102D7000D049086002E00120CE490860CE480078C2
:102D800048B9CE48007818B90020CD49086002E063
:102D90000120CB4908607047CA48007801280BD150
:102DA000C948007820B90120BD49091F086003E027
:102DB0000020BB49091F0860C4480078012809D1D8
:102DC000C348007818B90120B549086002E0002026
:102DD000B3490860B348007801280BD1B2480078A5
:102DE00020B90120AE49091D086003E00020AC496C
:102DF000091D0860AD480078012809D1AC48007869
:102E000018B90120AB49086002E00020A949086018
:102E1000A9480078012809D1A848007818B90120EC
:102E2000A749086002E00020A54908607047A5484E
:102E3000007801280BD1A448007820B900209849D7
:102E4000091F086003E001209549091F08609F4899
:102E50000078012809D19E48007818B900209049CF
:102E6000086002E001208E4908608E480078012841
:102E70000BD18D48007820B900208949091D0860D0
:102E800003E001208649091D086088480078012870
:102E900009D18748007818B900208649086002E007
:102EA00001208449086084480078012809D18348BA
:102EB000007818B900208249086002E001208049AA
:102EC000086070477F48007802280BD17E48007860
:102ED00020B901207249091F086003E000207049F1
:102EE000091F086079480078022809D178480078DD
:102EF00018B901206A49086002E0002068490860AA
:102F00006848007802280BD16748007820B9012072
:102F10006349091D086003E000206149091D08603C
:102F200062480078022809D16148007818B9012068
:102F30006049086002E000205E4908605E48007851
:102F4000022809D15D48007818B901205C49086061
:102F500002E000205A49086070475A480078022869
:102F60000BD15948007820B900204D49091F08604D
:102F700003E001204A49091F0860544800780228EC
:102F800009D15348007818B900204549086002E08B
:102F90000120434908604348007802280BD1424889
:102FA000007820B900203E49091D086003E0012097
:102FB0003B49091D08603D480078022809D13C487A
:102FC000007818B900203B49086002E00120394927
:102FD000086039480078022809D13848007818B9C3
:102FE00000203749086002E0012035490860704739
:102FF0003448007803280BD13348007820B90120E9
:103000002749091F086003E000202549091F0860BF
:103010002E480078032809D12D48007818B90120DE
:103020001F49086002E000201D4908601D48007823
:1030300003280BD11C48007820B901201849091D2C
:10304000086003E000201649091D08601748007851
:10305000032809D11648007818B9012015490860DD
:1030600002E000201349086013480078032809D1C2
:103070001248007818B901201149086002E00020C8
:103080000F49086070470F480078032825D10E4883
:10309000007820B900200249091F08601DE019E0EE
:1030A000AC012242A00E00206C020020A10E0020E4
:1030B0006D02002088812242A20E00206E020020B4
:1030C0008C8121429E0E00206A0200209F0E00206B
:1030D0006B0200200120EA490860EA4800780328D2
:1030E0000BD1E948007820B90020E549091D0860A6
:1030F00003E00120E249091D0860E4480078032844
:103100000BD1E348007820B90020DD490831086080
:1031100003E00120DA4908310860DE48007803281E
:1031200009D1DD48007818B90020DC49086002E0C8
:103130000120DA490860DA480078032809D1D94823
:10314000007818B90020D849086002E00120D6496B
:103150000860704700B5D5480078042809D1D448E4
:10316000007818B90120C649086002E00020C4496F
:103170000860C448007804280BD1C348007820B9FF
:103180000120BF49091D086003E00020BC49091D5A
:103190000860BE48007804280BD1BD48007820B9EB
:1031A0000120B7490831086003E00020B449083124
:1031B0000860B8480078042809D1B748007818B9E1
:1031C0000120B649086002E00020B4490860B44814
:1031D0000078042809D1B348007818B90120B24911
:1031E000086002E00020B0490860B248007840F072
:1031F0000100B0490870FFF779FB00BDAB480078CB
:10320000042809D1AA48007818B900209C49086010
:1032100002E001209A4908609A48007804280BD1FE
:103220009948007820B900209549091D086003E0FD
:1032300001209349091D08609448007804280BD1A7
:103240009348007820B900208D490831086003E0D8
:1032500001208B49083108608E480078042809D184
:103260008D48007818B900208C49086002E00120E0
:103270008A4908608A480078042809D1894800787A
:1032800018B900208849086002E0012086490860DA
:103290008848007800F0FE0086490870704700B545
:1032A00082480078052809D18148007818B90120A2
:1032B0007349086002E00020714908607148007895
:1032C00005280BD17048007820B901206C49091DF0
:1032D000086003E000206A49091D08606B48007817
:1032E00005280BD16A48007820B9012064490831CB
:1032F000086003E0002062490831086065480078F2
:10330000052809D16448007818B90120634908608C
:1033100002E000206149086061480078052809D171
:103320006048007818B901205F49086002E0002079
:103330005D4908605F48007840F002005D49087010
:10334000FFF7D4FA00BD59480078052809D158483C
:10335000007818B900204A49086002E00120484975
:1033600008604848007805280BD14748007820B904
:1033700000204349091D086003E001204049091D60
:1033800008604248007805280BD14148007820B9F0
:1033900000203B490831086003E00120384908312A
:1033A00008603C480078052809D13B48007818B9E6
:1033B00000203A49086002E0012038490860384896
:1033C0000078052809D13748007818B90020364917
:1033D000086002E00120344908603648007800F0B7
:1033E000FD0034490870704730480078082809D13A
:1033F0002F48007818B900202149086002E0012018
:103400001F4908601F48007808280BD11E48007823
:1034100020B900201A49091D086003E0012018495D
:10342000091D08601948007808280BD11848007851
:1034300020B9002012490831086003E0012010493A
:103440000831086013480078082809D1124800782C
:1034500018B900201149086002E001200F490860F6
:103460000F480078082809D10E48007818B90020C4
:103470000D49086002E001200B4908607047000018
:10348000A80122429F0E00206B020020A00E002007
:103490006C020020A10E00206D02002088812242D3
:1034A000A20E00206E0200208C8121429E0E002080
:1034B0006A020020C40000200146088870472DE9F8
:1034C000F04105460E461746002407E036F8141072
:1034D000284602F0DAFAAD1C601C84B2BC42F5DB6F
:1034E000BDE8F08130B503460C461546002207E0E2
:1034F0001846FFF7E1FF24F812009B1C501C82B213
:10350000AA42F5DB30BD2DE9F05F80468A461746BA
:10351000B8F1006F02D33748804501D3BDE8F09F72
:1035200002F06BF9A8F1006B4FEADB25CBF34909F8
:10353000C9F58064A74200DC3C464DE04FF00061D5
:1035400001EBC5204A142C49FFF7CCFF00260BE005
:1035500009EB0600284931F810004FF6FF71884248
:1035600000D003E0701C86B2A642F1DB00BFA64289
:103570001BDA4FF0006101EBC52002F083F9002651
:1035800008E03AF8160006EB09011B4A22F8110080
:10359000701C86B2A642F4DB4FF0006101EBC5203F
:1035A0004A141549FFF78BFF04E022465146404676
:1035B000FFF785FFA74200D10FE06D1C4FF0000917
:1035C0000AEB440AA044381B87B2B7F5806F02DDCE
:1035D0004FF4806400E03C46B0E700BF02F019F908
:1035E00000BF9BE713B50446012201A92046FFF75F
:1035F0008AFF1CBD00000808C00E002030B589B04D
:1036000005460C460121C80202F0D2FE0121042029
:1036100002F0CEFE4FF48070ADF8200018208DF837
:10362000230003208DF8220008A9194802F004FCA9
:10363000ADF81850ADF814400020ADF81A00ADF800
:10364000160005A9134802F0EBFF7020ADF8040046
:103650000120ADF806000020ADF80A000220ADF808
:103660000C0001A90B4803F018F80121094803F0E8
:103670003FFB0821074803F05FFC0121054803F0E8
:103680002BFC0121034803F027FB09B030BD0000EB
:1036900000080140002C014070B50F25012065494C
:1036A000087065A19020FDF7E0FA1EE04120664910
:1036B00008705420487000240DE000BF6348008863
:1036C00000F040000028F9D05F48005D5F49091D07
:1036D0000880601CC4B2012CEFDD4FF47A7001F059
:1036E000AAFC5448007800B904E02800A5F10101C3
:1036F000CDB2DBD100BF70BD2DE9FF4154A30FCB8C
:103700008DE80F000F270120554908704FF4837290
:1037100054495548FFF7E6FE524890F8AC0044B2D1
:10372000504890F8AD0045B243A19020FDF79DFAB6
:1037300059E041204D490860542048602B208860A2
:103740004E20C860412008614D20486145208861B5
:103750005320C86155200862522048625020886278
:103760004120C8625320086348632046E11704EBF8
:10377000116109121DF801103C4A9163E11704EB35
:1037800011610912A4EB01211DF80110D163284633
:10379000E91705EB116109121DF801101164E91711
:1037A00005EB11610912A5EB01211DF8011051640F
:1037B00000260EE000BF2548008800F040000028E9
:1037C000F9D02A4830F826002049091D0880701CCD
:1037D000C6B2112EEEDD4FF47A7001F02CFC2048B9
:1037E000007800B904E03800A7F10101CFB2A0D100
:1037F00000BFBDE8FF8108B50121042002F0D8FD1B
:103800004FF48050ADF8000010208DF80300032025
:103810008DF802006946164802F00EFB002015499B
:103820000860FFF739FF0348007808B9FFF764FF25
:1038300008BD00003D010020325341313632375F70
:1038400056312E38000000000619002000480040C4
:1038500030313233343536373839414243444546C6
:103860003E010020C016002000000308301900208F
:1038700000080140B0012142FE490978012914D114
:1038800000200DE000BFFC49098801F0400100293B
:10389000F9D0FA49095CF84A121D1180411CC8B2DE
:1038A0000728EFDD0021F64A1170704730B5024657
:1038B0000B464FF6FF7010E012F8014B60400021FC
:1038C00009E000F0010424B14AF2010484EA500046
:1038D00000E04008491C0829F3DB1C00A3F10105A6
:1038E000EBB2E9D130BD30B502460B464FF6FF7062
:1038F00010E012F8014B6040002109E000F00104E3
:1039000024B14AF2010484EA500000E04008491C56
:103910000829F3DB1C00A3F10105EBB2E9D130BDAE
:1039200030B5024653B2242B15D1002010E0C0F16F
:103930002304D44D2D782C1B61B2002902DA01F149
:10394000280461B2D04C645CD04D2C54441C60B24D
:103950002328ECDD16E0142B14D1002010E0C0F178
:103960001304C84D2D782C1B61B2002902DA01F135
:10397000280461B2C44C645CC44D2C54441C60B235
:103980001328ECDD30BD2DE9F0478AB040F2255117
:10399000BF4803F03FFE20B1BD4803F0BBFD00F07F
:1039A000FF0AB948B749097800F801A000784F2804
:1039B0001BD1B54840784B2806D1B348807873288E
:1039C00002D00020B349087000250CE0AE48405DED
:1039D000732807D1AC49681C085C652802D1002017
:1039E000AD4908706D1C282DF0D9A748A549097864
:1039F000405C3C287ED12420FFF792FF002404E0A5
:103A0000A248005D01A90855641C242CF8D321218B
:103A100001A8FFF768FF06469DF825709DF82680EF
:103A20004FF4807000FB0870B0427DD101209B49AB
:103A300008709DF80400F12877D199480078002893
:103A400074D14FF4837297499748FFF74BFD95481F
:103A500090F83000954908709DF806109DF8050013
:103A600001EB0020924908709DF808109DF80700AE
:103A700001EB00208F4908609DF80A109DF80900AD
:103A800001EB00208C4908709DF80C109DF80B008C
:103A900001EB0020894908709DF80E109DF80D007B
:103AA00001EB0020864908609DF810109DF80F007A
:103AB00001EB00299DF812109DF8110001EB002088
:103AC000804908709DF814109DF8130001EB002048
:103AD0007D4908709DF816109DF8150001EB002037
:103AE0007A4908709DF818109DF8170001EB002026
:103AF000774900E02AE108709DF81A109DF8190036
:103B000001EB0020734908709DF81C109DF81B0004
:103B100001EB0020704908709DF81E109DF81D00F3
:103B200001EB00206D4902E089E078E073E0087065
:103B30009DF820109DF81F0001EB002068490870D7
:103B40005E480078002866D05D480068002862D092
:103B5000574800785349487356480088000A8875CA
:103B600054480078887454480078C87453480078E2
:103B700008705348007808755A48007881F830007A
:103B800051480078887051480078C87550480078CE
:103B900008765048007848764F48007888764F4835
:103BA0000078C8764E48007881F82600B9F1650F94
:103BB00005D101204C4908703A49087106E00020FF
:103BC00049490870374981F8379008713D480078B5
:103BD00036490978884218D044480078642803D1CF
:103BE00000204249087002E06420404908703548CE
:103BF000007800F001003349087008460078294930
:103C000081F830003948007848704FF483722549B4
:103C10002548FFF778FC05203549087012E09DF82B
:103C20000400F22803D10820314908700AE09DF809
:103C30000400F32806D109202D49087002E0002075
:103C4000164908701420FFF76BFE002404E00F48AB
:103C5000005D01A90855641C142CF8D3112101A89A
:103C6000FFF741FE06469DF815709DF816804FF44B
:103C700080703FE0BE0E0020003801401902002095
:103C8000AE0E002000010020DE180020AA1800203F
:103C9000004800403D0100203E010020AF0E002002
:103CA000CB010020C01600200000030841000020C6
:103CB0004500002050010020460000203E0000206A
:103CC000780E00207C0000209C0E00209E0E00201C
:103CD0009F0E0020A00E0020A10E0020A20E0020AA
:103CE000B10E00204200002040000020D100002042
:103CF0000201002000FB0870B0427DD19DF8040055
:103D0000012803D10720FE4908709AE09DF80400BD
:103D100011281CD10120FB4908700720F8490870C0
:103D2000F9480078401CF8490870084600780128D6
:103D300001DD00200870F5480078401CF349087048
:103D40000846007801287CDD0020087079E09DF8A5
:103D50000400102803D10620E949087071E09DF89D
:103D60000400032827D10720E54908700120E8490D
:103D70000870E5480078D0B90120E6490870E648A7
:103D80000068052801DDFEF7CFFCE3480068022843
:103D900001DAFEF7E5FCE0480068E049096888427E
:103DA00002DAFEF726FD4CE0FEF732FD49E0002086
:103DB000D849087045E09DF8040002282FD107205B
:103DC000CF4908700120D2490870CF48007810BB55
:103DD0000120D0490870D048006840F2E3318842A1
:103DE00001DAFEF788FCCC48006840F2E6318842F0
:103DF00001DDFEF7B5FC00E020E0C8480068C0F532
:103E00007A70C5490968884202DAFEF7F2FC18E0C8
:103E1000FEF7FEFC15E00020BE49087011E09DF899
:103E2000040070B90120BE4908700720B449087029
:103E3000B548007828B9FEF793FC02E00020B949A4
:103E40000870B9480078401CB749087008460078E7
:103E5000272801DD002008700AB0BDE8F08710B502
:103E600086B004460121880402F0AFFA012109203E
:103E700002F09EFA4FF48060ADF8140003208DF834
:103E8000160018208DF8170005A9A84801F0D4FFE6
:103E90004FF40060ADF8140004208DF8170005A958
:103EA000A24801F0C9FF27208DF8000002208DF8FC
:103EB00001008DF8020001208DF80300684601F032
:103EC0005EF901940020ADF80800ADF80A00ADF8E5
:103ED0000C00ADF810000C20ADF80E0001A99448BC
:103EE00003F01BFA012240F22551914803F0ADFA8C
:103EF00001218F4803F09DFA06B010BD10B586B0C1
:103F00000446012144F2050002F052FA4FF4007019
:103F1000ADF8140003208DF8160018208DF8170056
:103F200005A9844801F088FF4FF48060ADF81400C3
:103F300004208DF8170005A97E4801F07DFF25209B
:103F40008DF8000001208DF801008DF802008DF839
:103F50000300684601F013F901940020ADF8080051
:103F6000ADF80A00ADF80C00ADF810000C20ADF86B
:103F70000E0001A9704803F0D0F9012240F225514A
:103F80006D4803F062FA01216B4803F052FA06B063
:103F900010BD2DE9F05F69480078012802D10020AA
:103FA00067490870FDF7B2FA00206449087040F2D2
:103FB0002551614803F02EFB20B15F4803F0AAFAB7
:103FC00000F0FF0B5F485E49097800F801B05C48DB
:103FD0000078401C5A49087008460078192801DD0D
:103FE000192008705648007807287DD15548007878
:103FF0000128FAD1534840780328F6D15248007876
:10400000002872D105214F48FFF750FC05464D4866
:10401000467987794FF4807000FB0761A9426DD122
:10402000484890F80380007900EB08244748046072
:1040300001203C49087046480078132846D2DFE842
:1040400000F02A3336393C3F422D300A0D1013164A
:10405000191C1F2225003F48046037E03E480460D9
:1040600034E03E48046031E03D4804602EE03D48C5
:1040700004602BE03C48046028E03C48046025E0F4
:104080003B48046022E03B4804601FE03A490C7062
:104090003A4804601AE03948046017E03848046080
:1040A00014E03848046011E0374804600EE03748F7
:1040B00004600BE03648046008E03648046005E020
:1040C0003548046002E03548046000BF00BF2B485B
:1040D0000088000A3249C87329480088000A4874D9
:1040E00028480088000A01E042E12CE1C874264813
:1040F0000088000AC8712548008853E01FE10000CD
:1041000002010020D9000020D6000020CA010020B2
:104110003D000020D70000208C0000207C0E0020F5
:10412000D8000020AF0E002000010020000C01404C
:10413000004800400008014000380140BE0E002049
:10414000680E0020CE180020AE0E00208C0E00203D
:1041500030000020D0010020D4010020D801002030
:10416000E0010020E4010020E8010020EC01002033
:10417000F0010020DC0100203F010020F4010020BC
:10418000F8010020FC0100200002002004020020B1
:10419000080200200C02002010020020140200205F
:1041A000C6170020000A4872FE480088000A4870BE
:1041B000FD480088000AC870FC480088000A487161
:1041C000FB480088000AC872FA4800780874FA4868
:1041D00000788874F94800780875F9480078087202
:1041E000F84800788872EF4800788870EE480078C8
:1041F0000871EE4800788871ED4800780873F2483D
:104200000088000AF1494870F1480088000AC87027
:10421000F0480088000AC871EE480088000AEE499C
:104220004871EC480088000AEC494871EC48008865
:10423000000AE649C872EB480088000AC873EA48D9
:104240000088000A4874E9480088000AC874E848F1
:104250000088000A4871E7480088000A4872E6486A
:104260000068E6490968884210D8E348006800EB16
:104270008000E3490968C1EB4010E2490968B0FBDE
:10428000F1FA50460DF08FFB814611E0DA480068E4
:10429000DB490968401A00EB80004001D9490968F0
:1042A000B0FBF1F000F1280A50460DF07CFB81468E
:1042B000002148460DF0F4FB04D3D34948460DF0E5
:1042C000F9FB01D24FF0000948460DF08FFB824602
:1042D000C0170AEB10600012AAEB0020BB498873DC
:1042E00048460DF083FB8246C0170AEB1060000AB7
:1042F000B6494873B44800788870B54800780871AA
:10430000B44800780872B3480078B3498871B1485E
:104310000078B2498871B2480078AC490873B14856
:1043200000780874B04800788874B0480078087540
:10433000AF4800788871AF480078887218E0002094
:10434000B249087014E00621B148FFF7AFFA0546FC
:10435000AF488679C7794FF4807000FB0761A942A6
:1043600003D10120A949087002E00020A749087084
:10437000BDE8F09F30B502460B464FF6FF7010E0E7
:1043800012F8014B6040002109E000F0010424B163
:104390004AF2010484EA500000E04008491C082960
:1043A000F3DB1C00A3F10105EBB2E9D130BD2DE92F
:1043B000F04706460C461746984601209549087076
:1043C0000620487008468670C470077180F8058022
:1043D0000621FFF7CFFF81468E4981F806904FEA0C
:1043E0001920C8718C480078012817D1032E03D1F9
:1043F000092C13D00A2C11D000250DE000BF8748EE
:10440000008800F040000028F9D08248405D8349D0
:10441000091D0880681CC5B2072DEFDD0A2000F0D9
:104420000AFEBDE8F0872DE9F04706460C46174620
:104430009846012077490870062048700846867023
:10444000C470077180F805800621FFF793FF81464D
:10445000704981F806904FEA1920C8716E480078BB
:10446000012817D1032E03D1092C13D00A2C11D007
:1044700000250DE000BF6948008800F040000028DA
:10448000F9D06448405D6549091D0880681CC5B2C3
:10449000072DEFDD022000F044FEBDE8F0872DE996
:1044A000F04105460E4601205A4908700320487025
:1044B00008468570C67000200871012048710621E9
:1044C0005448FFF757FF074652498F71380AC871A1
:1044D00051480078012814D1002410E000BF4F4853
:1044E000008800F040000028F9D04A48005D4B49A0
:1044F000091D0880322000F0F2FD601CC4B2072CB8
:10450000ECDD0A2000F097FD45480068BDE8F08129
:104510002DE9F04105460E4601203E490870032072
:10452000487008468570C6700020087101204871E7
:1045300006213848FFF71EFF074636498F71380AB3
:10454000C87135480078012814D100240DE000BF5F
:104550003248008800F040000028F9D02D48005D66
:104560002E49091D0880601CC4B2072CEFDD002015
:104570002C490870142000F05EFDBDE8F0812DE9A3
:10458000F041294890F8AE80642008FB00F42648EA
:10459000C57C264805602648007808B9322049E0E5
:1045A0004CE00000080200200C0200201002002055
:1045B00014020020F4010020F8010020FC0100207A
:1045C0000002002004020020D0010020EA17002091
:1045D000D4010020D8010020321800205A180020F1
:1045E000E0010020E4010020E8010020EC010020AF
:1045F000F0010020DC010020C0000020F4000020B9
:10460000FC000020F800002000007A44AF0E0020DB
:10461000CE180020580E0020BE0E002000380140A9
:104620008C0E0020AE0E0020C0160020B00000202E
:10463000A400002068432821B0FBF1F5FE48007873
:10464000012804D1642068435021B0FBF1F5FA48F9
:104650000078022805D14FF4C8706843A021B0FB50
:10466000F1F5642005FB00F7A74201D8264600E0DB
:104670003E46F2480460F2480660F248007838B9D5
:10468000E3B2C4F3072201212020FFF790FE06E0E9
:10469000F3B2C6F3072201212020FFF788FEBDE810
:1046A000F0812DE9F041E848E8490978405CE849A3
:1046B000087008460078142868D2DFE800F06749DF
:1046C0004E53585D623F440A0F14191E23282D32A1
:1046D000373C04212120FFF71BFF57E00621212052
:1046E000FFF716FF52E003212120FFF711FF4DE0F5
:1046F00028210320FFF70CFF48E008212120FFF7C5
:1047000007FF43E007212120FFF702FF3EE00221DF
:104710000C20FFF7FDFE39E005212120FFF7F8FE10
:1047200034E002212120FFF7F3FE2FE000210620D4
:10473000FFF7EEFE2AE0FFF722FF27E00721062021
:10474000FFF7E6FE22E008210620FFF7E1FE1DE06C
:1047500001210620FFF7DCFE18E002210620FFF70A
:10476000D7FE13E003210620FFF7D2FE0EE004215E
:104770000620FFF7CDFE09E005210620FFF7C8FE61
:1047800004E006210846FFF7C3FE00BF00BFAF48A4
:104790000078401CAD49087008460078262801DDE5
:1047A00000200870AB480078092822D1F320AA49DC
:1047B00008703C2081F823002121A748FFF7DAFD8B
:1047C0000546A54981F82150280A81F822000024D5
:1047D0000CE000BFA148008800F040000028F9D09C
:1047E0009D48005D9D49091D0880641C232CF0D95B
:1047F0000CE398480078082830D1F22098490870D6
:104800003C2081F8230021219548FFF7B3FD0546A0
:10481000934981F82150280A81F8220091480088A4
:10482000000A48758F48007888758F480088000A0C
:10483000C8758D480078087600240CE000BF8748D2
:10484000008800F040000028F9D08548005D8349C9
:10485000091D0880641C232CF0D9D7E27D4800781C
:1048600006287DD14FF4837280498148FEF73AFED5
:104870007E4890F8A80040B27E4908707B4890F8C6
:10488000A90040B27C490870784890F8AA0040B26C
:104890007A490870754890F8AB0040B278490870C2
:1048A000724890F8AC0040B2764908706F4890F8B2
:1048B000AD0040B2744908701020744908706D4909
:1048C00091F90000C11700EB1161090A6F4A51709C
:1048D000684991F90000C11700EB11610912A0EBC2
:1048E00001219170644991F90000C11700EB116139
:1048F000090AD170604991F90000C11700EB1161FC
:104900000912A0EB012111715C4991F90000C11756
:1049100000EB1161090A5171584991F90000C11762
:1049200000EB11610912A0EB01219171544991F939
:104930000000C11700EB1161090AD171504991F9CA
:104940000000C11700EB11610912A0EB01211172E7
:104950004C4991F90000C11700EB1161090A00E010
:1049600039E05172474991F90000C11700EB11611C
:104970000912A0EB01219172434991F90000C1177E
:1049800000EB1161090AD1723F4991F90000C1178A
:1049900000EB11610912A0EB0121117311211046E6
:1049A000FFF7E8FC054639494D74280A88743C2015
:1049B000C87400240CE000BF2848008800F04000C4
:1049C0000028F9D03148005D2449091D0880641C85
:1049D000142CF0D31AE21F480078052868D14FF450
:1049E000837222492248FEF77DFD2048877D407B67
:1049F000274908701D48807C00EB07202549086086
:104A00001A48C07C24490870184800782349087067
:104A10001648007D22490860144890F8300021496A
:104A2000087012488078204908701048C07D1F49DE
:104A300008700E48007E3CE0A4000020A800002082
:104A4000AC000020D300002016010020010100204E
:104A50003000002002010020C6170020004800405E
:104A6000EA170020C8000020CC000020C01600205B
:104A70000000030844010020420100204101002001
:104A8000430100204501002046010020D0190020EC
:104A90004500002050010020460000203E0000207C
:104AA000780E0020410000209C0E00209E0E002069
:104AB00019E1F9490870F948407EF9490870F7484A
:104AC000807EF8490870F548C07EF7490870F348C1
:104AD00090F82600F5490870F04890F83700F4493E
:104AE0000870EE480079F3490870084600780128FC
:104AF00001D1652602E0EE48007846B2F120EE4989
:104B000008703C2081F823002121EB48FFF732FC9C
:104B10000546E94981F82150280A81F82200E74931
:104B20000878C11700EB11610912E34A5170E3499B
:104B30000878C11700EB11610912A0EB01219170F7
:104B4000DF480088000A1146C870DD480078087107
:104B5000DC490878C11700EB116109125171D9497C
:104B60000878C11700EB11610912A0EB01219171C6
:104B7000D5490878C11700EB11610912D171D249EA
:104B80000878C11700EB11610912A0EB0121117225
:104B9000CE480088000A11464872CC4800788872D6
:104BA0003046F11706EB1161090AD172F11706EBD5
:104BB00011610912A6EB01211173C5490878C117CB
:104BC00000EB116109125173C1490878C11700EB5C
:104BD00011610912A0EB01219173BE490878C11738
:104BE00000EB11610912D173BA490878C11700EBC3
:104BF00011610912A0EB01211174B7490878C1179E
:104C000000EB116109125174B3490878C11700EB28
:104C100011610912A0EB012191749F490878C11715
:104C200000EB11610912D1749B490878C11700EBA0
:104C300011610912A0EB0121117599490878C1177A
:104C400000EB11610912517595490878C11700EB05
:104C500011610912A0EB0121917592490878C117E1
:104C600000EB11610912D1758E490878C11700EB6C
:104C700011610912A0EB012111768B490878C11747
:104C800000EB11610912517687490878C11700EBD2
:104C900011610912A0EB0121917684490878C117AE
:104CA00000EB11610912D17680490878C11700EB39
:104CB00011610912A0EB01211177002011464877FC
:104CC000887700240CE000BF8448008800F0400092
:104CD0000028F9D07848005D8049091D0880641CCF
:104CE000232CF0D992E07E4800780728FAD17D483D
:104CF0000078022802D17C4908701AE079480078CF
:104D0000032802D17849087013E07648007801281A
:104D100002D1754908700CE07248007818B900207B
:104D20007149087005E06F480078112801D16E497B
:104D300008706E480068002802DA00206B4908609D
:104D40006A490868C11700EB1161090A664A517087
:104D500066490868C11700EB11610912A0EB012137
:104D6000917063480088000A1146C8706048007856
:104D700008716048006864385F49096888420AD849
:104D80005D4801685D4800686430814203D80120B5
:104D90001146087202E0002053490872002052496F
:104DA000C8715248006800EB800040014FF47A71EE
:104DB00090FBF1F028305249086008460088000A4C
:104DC000494948724E48007888720020C8724D48A0
:104DD000007808733C20C87411214348FFF7CAFAD1
:104DE000054641494D74280A887400240CE000BF30
:104DF0003A48008800F040000028F9D03A48005DA9
:104E00003649091D0880641C132CF0D9BDE8F081D7
:104E100010B5FFF746FC3C480078012806D13B4816
:104E20000068441D00203849087001E037480468D4
:104E3000364804682E480068A0422BD90020344927
:104E400008603449C1F8940133490870012033499E
:104E500008703349086000203249C1F8A001324887
:104E60000078401C3049087008460078032861DB50
:104E70002E480078401C2D490870084600780749E4
:104E800081F822000F2000F04CF90020284908602A
:104E9000FDF7C1FE65E04DE09F0E0020C01600202A
:104EA000A00E0020A10E0020A20E0020B10E0020B6
:104EB00040010020400000200E1800204500002086
:104EC00050010020460000203E000020780E002007
:104ED000410000209C0E00209E0E00200048004053
:104EE00002010020DE180020321800208C00002073
:104EF000D0010020FC000020C0000020F4000020B1
:104F000008010020CA010020A60E0020700E00201B
:104F10009801224200002142D4000020800E00208F
:104F2000A481214200802142AA0E0020A90E002067
:104F30008C0E002029480078401C2849087008463B
:104F40000078274981F822000F2000F0EAF80020BD
:104F5000244908602449C1F8A00124490870244963
:104F600008602448007801281DD1204908700020DD
:104F70002149087001201B49086000201A49C1F826
:104F8000A00116480078401C1449087008460078B3
:104F9000134981F822000F2000F0C3F800201449C3
:104FA00008601449087010BD14490978012914D10A
:104FB00000200DE000BF1249098801F040010029DE
:104FC000F9D01049095C0E4A121D1180411CC8B26B
:104FD0000728EFDD00210C4A11707047A90E002050
:104FE000C0160020A481214200802142800E0020B2
:104FF0008C0E0020B30E0020D4000020BE0E002036
:105000000038014029020020AE0E002010B50446F1
:105010006FF0040000F0FDF8E11704EB5171C910C6
:10502000464A11601046008880B24FF47A714843B6
:105030004349086010BD0146414A12684A434FF097
:10504000E0235A6100229A6101221A6100BF4FF0E9
:10505000E022106900F001021AB100F48032002A47
:10506000F5D000224FF0E0231A619A6170470146A3
:10507000334A12684A434FF0E0235A6100229A6192
:1050800001221A6100BF4FF0E022106900F0010216
:105090001AB100F48032002AF5D000224FF0E0234C
:1050A0001A619A6170470146254A12684A434FF0D7
:1050B000E0235A6100229A6101221A6100BF4FF079
:1050C000E022106900F001021AB100F48032002AD7
:1050D000F5D000224FF0E0231A619A617047014633
:1050E000164A12684A434FF0E0235A6100229A613F
:1050F00001221A6100BF4FF0E022106900F00102A6
:105100001AB100F48032002AF5D000224FF0E023DB
:105110001A619A617047002100E0491C8142FCD36A
:105120007047002107E0002200E0521C4EF6602389
:105130009A42FAD3491C8142F5D3704714000020EB
:105140001800002010B54FF4A06000F013F810BD57
:105150000648804706480047FEE7FEE7FEE7FEE711
:10516000FEE7FEE7FEE7FEE7FEE7FEE7C709000809
:10517000ED00000831490143314A1160704770B5B4
:10518000002100230F22C47804B32D4C246804F4BA
:10519000E064C4F5E064210AC1F10403CA40447824
:1051A00004FA03F18478144021430901254C067860
:1051B000A155047804F01F050124AC4005786D1159
:1051C000AD0005F1E025C5F8004109E0047804F0E0
:1051D0001F050124AC401C4D0678761145F8264089
:1051E00070BD1A4A0A400243154B1B1F1A607047D4
:1051F00039B1134A121D12680243114B1B1D1A606C
:1052000006E00F4A121D126882430D4B1B1D1A60E7
:105210007047042808D14FF0E021096941F00401EA
:105220004FF0E022116107E04FF0E021096921F021
:1052300004014FF0E0221161704700000000FA0500
:105240000CED00E000E400E080E100E080FFFF1FE3
:1052500010B50446FA48844208D10121401501F0F6
:10526000C1F80021601501F0BDF817E0F54884424F
:1052700008D10121001501F0B5F80021201501F039
:10528000B1F80BE0F048844208D10121C80301F0D5
:10529000A9F800214FF4004001F0A4F810BD30B58A
:1052A0000246002000235068E84C20400D790C682D
:1052B00044EA0524204350609068E54C2040D1E941
:1052C00002542C434D7944EA450420439060D06A4F
:1052D00020F470000C7C641EE4B2234340EA0350C7
:1052E000D06230BD00210160017141718160C160F7
:1052F00001210174704721B1826842F0010282608D
:1053000003E0826822F001028260704721B1826866
:1053100042F48072826003E0826822F480728260CC
:10532000704710B50023CBB21AB144681C434460E7
:1053300002E044689C43446010BD816841F008016C
:1053400081607047014600208A6802F008020AB1B5
:10535000012000E000207047816841F00401816075
:105360007047014600208A6802F004020AB1012059
:1053700000E00020704721B1826842F4A002826000
:1053800003E0826822F4A002826070470146002098
:105390008A6802F480020AB1012000E00020704710
:1053A00010B50A4600210023416821F46041531ED4
:1053B00041EA4331416010BD21B1426842F40062CC
:1053C000426003E0426822F4006242607047F0B538
:1053D00004460D4600200021092D11DDE068A5F1ED
:1053E0000A0606EB4607072606FA07F18843A5F1E9
:1053F0000A0606EB460603FA06F10843E0600CE0F5
:10540000206905EB4507072606FA07F1884305EBF7
:10541000450603FA06F108432061072A0FDA606B9C
:10542000561E06EB86071F2606FA07F18843561E0E
:1054300006EB860605FA06F10843606322E00D2AB2
:105440000FDA206BD61F06EB86071F2606FA07F138
:105450008843D61F06EB860605FA06F1084320634B
:1054600010E0E06AA2F10D0606EB86071F2606FA99
:1054700007F18843A2F10D0606EB860605FA06F150
:105480000843E062F0BD21B1826842F4801282607C
:1054900003E0826822F48012826070470146C86C83
:1054A00080B2704766484C300068704721B142684E
:1054B00042F48062426003E0426822F4806242600B
:1054C000704721B1426842F48052426003E0426872
:1054D00022F48052426070470A460021816821F41C
:1054E000E04111438160704721B1826842F400427B
:1054F000826003E0826822F400428260704721B13A
:10550000826842F40212826003E0826822F402128E
:1055100082607047014600208A6802F400120AB1D6
:10552000012000E000207047F0B504461546002039
:1055300000220026092911DDE068A1F10A0707EB26
:10554000470C072707FA0CF29043A1F10A0707EB73
:10555000470703FA07F21043E0600CE0206901EB13
:10556000410C072707FA0CF2904301EB410703FABD
:1055700007F210432061A06BC0F30156EF1C06F147
:10558000010CA7EB0C0707EB870C1F2707FA0CF29F
:105590009043EF1C06F1010CA7EB0C0707EB870704
:1055A00001FA07F21043A063F0BD10B50A460021CE
:1055B0000023816B21F44011531E41EA03518163A2
:1055C00010BD08B5002300930090009B0B4400938E
:1055D000009B1A6008BD08B50246002000900092AA
:1055E00001F12800009B184400900098006880B2E8
:1055F00008BD0A4600214168164B1940114341601D
:1056000070474162826270470A460021416821F07A
:105610001F0111434160704740B1094908310968D1
:1056200041F40001064A0832116007E004490831DC
:10563000096821F40001024A083211607047000035
:105640000024014000280140003C0140FFFEF0FF23
:10565000FDF7F1FFFFFD3FFF0246002013680B40FE
:105660000BB1012000E000207047CA430260704780
:1056700070B502460020002300240B125568CEB2FC
:1056800005EA060415681D4015B10CB1012000E0C3
:10569000002070BD00220A12D3430360704700004F
:1056A000002044490860091D0860091D0860091DA3
:1056B000086041483F4914310860704700213D4966
:1056C0008279002A3AD00A46126803689A430B4648
:1056D0001A600A1D126803689A430B1D1A6002794A
:1056E00011440A6803681A430A60324A0832126891
:1056F00003689A432F4B08331A601A1D1268036817
:105700009A432C4B0C331A604279102A0ED11A1F7F
:10571000126803681A43274B08331A601A1D12686F
:1057200003681A43234B0C331A600DE02149427978
:1057300011440A6803681A430A6005E002791144BB
:105740000A6803689A430A6070470021016001718A
:105750000C2141710021817170471649103109688F
:105760000143144A10321160704701460020114A6B
:10577000143212680A400AB1012000E0002070478C
:105780000C49143108607047014600200022094B83
:105790001B6803EA0102074B14331B680B4013B16B
:1057A0000AB1012000E0002070470249143108606E
:1057B0007047000000040140FFFF0F000146002079
:1057C000FE4A106800F03800084310607047FB493B
:1057D000096821F00801F94A11601146096801437E
:1057E00011607047F549096821F01001F34A116012
:1057F00011460968014311607047F148EF4948605C
:10580000F04848607047EE48EC494860ED48486011
:105810007047EA48006940F08000E8490861704735
:10582000E648006940F08000E449086170470420C0
:10583000E249C96801F0010109B101200EE0DF4928
:10584000C96801F0040109B1022007E0DB49C96819
:1058500001F0100109B1032000E00420704700B5F9
:1058600002460423FFF7E3FF034603E0FFF7DFFFF1
:105870000346521E012B01D1002AF7D102B905239C
:10588000184600BD30B5044604254FF43020FFF71C
:10589000E6FF0546042D17D1C848006940F0020014
:1058A000C649086108464461006940F0400008614B
:1058B0004FF43020FFF7D3FF0546C048006941F69A
:1058C000FD710840BD490861284630BD10B504246B
:1058D0004FF43020FFF7C3FF0446042C16D1B7481D
:1058E000006940F00400B54908610846006940F0CD
:1058F000400008614FF43020FFF7B1FF0446AF4885
:10590000006941F6FB710840AC490861204610BDB2
:1059100000B502460423FFF78AFF034603E0FFF7C2
:1059200086FF0346521E012B01D1002AF7D102B98E
:105930000523184600BD10B504244FF43020FFF7AE
:10594000E7FF0446042C16D19C48006940F004008F
:105950009A4908610846006940F0400008614FF428
:105960003020FFF7D5FF04469448006941F6FB71EB
:10597000084092490861204610BD00208F49C9693E
:1059800001F0020109B1012000E00020704730B5AC
:10599000A5250424FFF7F1FF00B100254FF43020C6
:1059A000FFF75DFF0446042C3AD18548834988609F
:1059B000844888600846006940F020000861084675
:1059C000006940F0400008614FF43020FFF747FFC6
:1059D0000446042C1BD17948006941F6DF71084068
:1059E000764908610846006940F010000861764871
:1059F0000580E002FFF733FF0446052C10D06F4806
:105A0000006941F6EF7108406C49086108E0052C17
:105A100006D06A48006941F6EF710840674908619D
:105A2000204630BD78B506460C460425002000907F
:105A3000E802FFF714FF0546042D24D15F480069F2
:105A400040F001005D4908613480E802FFF707FF7C
:105A50000546042D10D1B01C0090200C0099088040
:105A6000E802FFF7FCFE05465448006941F6FE7166
:105A700008405249086106E05048006941F6FE714D
:105A800008404E490861284678BD70B504460D4669
:105A90000426F002FFF7E3FE0646042E11D1474824
:105AA000006940F00100454908612580F002FFF7D8
:105AB000D6FE06464148006941F6FE7108403F495E
:105AC0000861304670BD70B505460E460424E002FC
:105AD000FFF7C5FE0446042C17D1394837498860C2
